:100000000C9463000C948B000C948B000C94F20401
:100010000C94F2040C94F2040C948B000C948B005E
:100020000C948B000C945A040C948B000C94A20436
:100030000C948B000C948B000C948B000C948B0014
:100040000C9410040C948B000C9404010C94DE00AE
:100050000C948B000C948B000C948B000C948B00F4
:100060000C9482050C948B000000000024002700F3
:100070002A0000000008000201000003040700003D
:1000800000000000000000000000250028002B00F8
:1000900000000000230026002900040404040404D6
:1000A0000404020202020202030303030303010227
:1000B00004081020408001020408102001020408F6
:1000C0001020510D3A0D11241FBECFEFD8E0DEBF36
:1000D000CDBF11E0A0E0B1E0E4E7F1E202C005909D
:1000E0000D92A039B107D9F725E0A0E9B1E001C030
:1000F0001D92A536B207E1F710E0C2E6D0E004C0D9
:100100002197FE010E94750FC136D107C9F70E94E1
:10011000D7070C94AD100C9400008FE393E00E947D
:10012000580121E0892B09F420E0822F0895EF92F5
:10013000FF920F931F93CF93DF93EC0181E0888FA1
:100140009B8D8C8D981305C0E889F989808185FD88
:1001500024C0F62E0B8D10E00F5F1F4F0F73112779
:10016000E02E8C8DE8120CC00FB607FCFACFE889A0
:10017000F989808185FFF5CFCE010E94DA02F1CFA7
:100180008B8DFE01E80FF11DE35AFF4FF0820B8FBC
:10019000EA89FB898081806207C0EE89FF896083DC
:1001A000E889F98980818064808381E090E0DF9133
:1001B000CF911F910F91FF90EF9008951F920F9292
:1001C0000FB60F9211242F933F934F935F936F932A
:1001D0007F938F939F93AF93BF93EF93FF938FE39F
:1001E00093E00E94DA02FF91EF91BF91AF919F914E
:1001F0008F917F916F915F914F913F912F910F90D0
:100200000FBE0F901F9018951F920F920FB60F926E
:1002100011242F938F939F93EF93FF93E0914F03BC
:10022000F09150038081E0915503F091560382FDD7
:1002300012C09081809158038F5F8F732091590372
:10024000821751F0E0915803F0E0E15CFC4F958F8C
:100250008093580301C08081FF91EF919F918F910E
:100260002F910F900FBE0F901F901895FC01918D4C
:10027000828D981761F0828DDF01A80FB11D5D9608
:100280008C91928D9F5F9F73928F90E008958FEF76
:100290009FEF0895FC01918D828D981731F0828D2A
:1002A000E80FF11D858D90E008958FEF9FEF089581
:1002B000FC01918D228D892F90E0805C9F4F821BE5
:1002C00091098F739927089580E090E0892B29F098
:1002D0000E948D0081110C940000089508951092E1
:1002E000550408950895089508950895089508956A
:1002F0001092530408952091920130919301281790
:10030000390771F49091900180919101981741F013
:10031000E0919001F0E0E156FD4F808190E008957A
:100320008FEF9FEF089508951F93CF93DF93DC0124
:100330005C962D913C915D972115310539F481E052
:1003400090E013969C938E9312973DC05196ED9139
:10035000FC91529750969C915097892F80951FB78A
:100360005E964C915E9741FB772770F941FD609551
:10037000F8944081772311F0492B01C04823408332
:10038000E9012197F1F748E0508160FF02C0592B45
:1003900001C058235083E9012197F1F76695415038
:1003A00099F7772321F090818923808303C080818E
:1003B000982B90831FBF5C968D919C915D970197C0
:1003C000F1F721E030E0C901DF91CF911F9108954D
:1003D00020919201309193012817390771F480918F
:1003E00091012091900190E0805C9F4F821B9109C8
:1003F00060E470E00E944D0F089580E090E0089561
:10040000209192013091930128173907B9F4909106
:10041000900180919101981789F0E0919001F0E0AE
:10042000E156FD4F80812091900130E02F5F3F4FDA
:100430002F7333272093900190E008958FEF9FEF63
:10044000089585ED8093BC008091BC0084FDFCCFB5
:1004500010921A03089540917A02262F30E0240F5B
:10046000311D21323105DCF420911A032430C9F406
:10047000FC0180E090E0861758F430917A022191D7
:10048000DC01A85ABD4FA30FB11D2C930196F3CFE9
:1004900080917A02680F60937A0280E0089581E08B
:1004A000089582E00895089581E090E03091F3028C
:1004B0002091F202321710F480E090E0919581953E
:1004C000910908958091F3029091F202891730F416
:1004D0008F5F8093F30280E090E008958FEF9FEFAD
:1004E00008958091F20290E02091F302821B91091D
:1004F0000895CF92DF92EF92FF920F931F93CF93C5
:10050000DF937C01262F972F8A0180911B0388237C
:1005100091F0C62FD72F6E01C40ED51ECC15DD0568
:1005200071F06991D701ED91FC910190F081E02D7E
:10053000C7010995F3CF642F822F0E942B02C801B7
:10054000DF91CF911F910F91FF90EF90DF90CF90AF
:100550000895CF93DF931F92CDB7DEB769832091C3
:100560001B032223D1F020913E03203240F021E0F2
:1005700030E0FC013383228380E090E015C080915D
:100580001C03E82FF0E0E35EFC4F998190838F5FBE
:1005900080931C0380933E0305C061E0CE01019669
:1005A0000E942B0281E090E00F90DF91CF9108959F
:1005B0000E94A810FC01848DDF01A80FB11DA35A71
:1005C000BF4F2C91848D90E001968F739927848F73
:1005D000A689B7892C93A089B1898C9180648C936A
:1005E000938D848D981306C00288F389E02D808155
:1005F0008F7D80830895CF93DF93EC01888D8823CE
:10060000C9F0EA89FB89808185FD05C0A889B9897F
:100610008C9186FD0FC00FB607FCF5CF808185FF5A
:10062000F2CFA889B9898C9185FFEDCFCE010E94C8
:10063000DA02E7CFDF91CF91089590E0FC01EE5808
:10064000FF4F3491FC01E255FF4F2491FC01E65627
:10065000FF4FE491EE2309F43BC0332339F13330EB
:1006600091F038F43130A9F0323001F584B58F7D46
:1006700012C0373091F03830A1F03430B9F48091A5
:1006800080008F7D03C0809180008F7780938000F1
:100690000DC084B58F7784BD09C08091B0008F777D
:1006A00003C08091B0008F7D8093B000F0E0EE0F2A
:1006B000FF1FEA57FF4FA591B4918FB7F894EC91C3
:1006C000611103C020952E2301C02E2B2C938FBFC8
:1006D0000895CF93DF9390E0FC01E255FF4F249102
:1006E000FC01E656FF4F8491882361F190E0880F6A
:1006F000991FFC01E859FF4FC591D491FC01EA57BD
:10070000FF4FA591B491611109C09FB7F8948881FA
:10071000209582238883EC912E230BC0623061F4F4
:100720009FB7F8943881822F809583238883EC913A
:100730002E2B2C939FBF06C08FB7F894E8812E2BE9
:1007400028838FBFDF91CF9108953FB7F8948091B0
:10075000EE029091EF02A091F002B091F10226B565
:10076000A89B05C02F3F19F00196A11DB11D3FBFE9
:10077000BA2FA92F982F8827820F911DA11DB11D77
:10078000BC01CD0142E0660F771F881F991F4A9573
:10079000D1F708958F929F92AF92BF92CF92DF923E
:1007A000EF92FF926B017C010E94A5034B015C015B
:1007B000C114D104E104F104F1F00E94A503DC01AD
:1007C000CB0188199909AA09BB09883E9340A10564
:1007D000B10570F321E0C21AD108E108F10888EEF2
:1007E000880E83E0981EA11CB11CC114D104E10441
:1007F000F10419F7DDCFFF90EF90DF90CF90BF901D
:10080000AF909F908F9008952FB7F8946091EA026F
:100810007091EB028091EC029091ED022FBF089550
:100820001F920F920FB60F9211242F933F938F9325
:100830009F93AF93BF938091EA029091EB02A091B6
:10084000EC02B091ED023091E90223E0230F2D3745
:1008500020F40196A11DB11D05C026E8230F0296C4
:10086000A11DB11D2093E9028093EA029093EB024F
:10087000A093EC02B093ED028091EE029091EF0212
:10088000A091F002B091F1020196A11DB11D8093DB
:10089000EE029093EF02A093F002B093F102BF91A9
:1008A000AF919F918F913F912F910F900FBE0F901D
:1008B0001F9018951F920F920FB60F9211242F932D
:1008C0003F934F936F937F938F939F932091E70272
:1008D0003091E8026091E3027091E402C901880F4F
:1008E000892F881F990B9195482F37FD40952091AE
:1008F000E60230E0429FC001439F900D11249B010E
:10090000220F232F221F330B3195422F77FD409565
:100910002091E20230E0429FB001439F700D11240C
:10092000860F971F892F86958093B4009F918F9192
:100930007F916F914F913F912F910F900FBE0F902C
:100940001F9018951F920F920FB60F9211242F939C
:100950003F934F935F936F937F938F939F93AF9347
:10096000BF93EF93FF938091DF029091E00280911B
:10097000DF029091E002892BA1F480916F008D7FBE
:1009800080936F00809181008E7F809381008091A1
:10099000B1008E7F8093B10060E08BE00E941D0368
:1009A00007C08091DF029091E00281958093B300AF
:1009B0008091DF029091E00201969093E002809393
:1009C000DF02FF91EF91BF91AF919F918F917F9146
:1009D0006F915F914F913F912F910F900FBE0F90AC
:1009E0001F9018951F920F920FB60F9211242F93FC
:1009F0003F934F935F936F937F938F939F93AF93A7
:100A0000BF93EF93FF93E0919201F09193013097A0
:100A100009F451C0968DA685B785858591FF04C0E0
:100A20009C91892329F447C09C91892309F043C0F4
:100A3000A389B4899C918589809589238C93868923
:100A400097890197F1F7608D718DA685B7855585DA
:100A500038E020E0CB010197F1F7822F90E09595E7
:100A60008795282F4C91452309F02068315091F744
:100A7000868D81FD20958091910190E001968F7384
:100A8000992730919001381749F0A0919101B0E079
:100A9000A156BD4F2C938093910103C0868D816038
:100AA000868F828D938D0197F1F7A389B4899C91EC
:100AB0008589892B8C93FF91EF91BF91AF919F9185
:100AC0008F917F916F915F914F913F912F910F90F7
:100AD0000FBE0F901F901895E0919201F091930135
:100AE000E817F90769F4A389B4899C9185898095F1
:100AF00089238C93109293011092920181E00895C2
:100B000080E008951F920F920FB60F9211242F9339
:100B10003F934F935F936F937F938F939F93AF9385
:100B2000BF93EF93FF938091B900887F803609F4DB
:100B30009CC068F5883209F45BC090F4803109F4F8
:100B400054C038F4882309F4F6C0883009F44DC045
:100B5000F6C0883109F44CC0803209F45DC0EFC0A2
:100B6000803409F468C048F4803309F455C08833F0
:100B700009F0E5C080931803D8C0803509F44FC050
:100B8000883509F45DC0883409F0D9C0D6C08839E9
:100B900009F4C7C0A8F4883709F467C038F4883668
:100BA00009F463C0803709F460C0C9C0883809F40B
:100BB000B8C0803909F45FC0803809F0C0C05BC09C
:100BC000803B09F486C038F4803A09F466C0883A5C
:100BD00009F47FC0B4C0803C09F4A7C0883C09F484
:100BE000A4C0883B09F48AC0AAC08091F50210C055
:100BF0009091170380911603981770F5E0911703F1
:100C000081E08E0F80931703F0E0EA50FD4F808162
:100C10008093BB0085EC86C0809318038EC0E09162
:100C2000170381E08E0F809317038091BB00F0E0E3
:100C3000EA50FD4F808390911703809116036EC098
:100C4000E091170381E08E0F809317038091BB0022
:100C5000F0E0EA50FD4F80838091190381116DC04F
:100C600081E08093F40284EA61C083E080931A03F8
:100C700010929E02CFCF80919E02803208F051C028
:100C8000E0919E0281E08E0F80939E028091BB00D6
:100C9000F0E0E258FD4F8083BDCF85EC8093BC002F
:100CA00010921A0380919E02803230F4E0919E02ED
:100CB000F0E0E258FD4F108260919E0270E0E091FA
:100CC0007C02F0917D028EE792E0099510929E02DF
:100CD00036C084E080931A0310927B0210927A024D
:100CE000E0917802F0917902099580917A02811160
:100CF00005C081E080937A0210925802E0917B0255
:100D000081E08E0F80937B02F0E0E85AFD4F8081F6
:100D10008093BB0090917B0280917A02981708F42F
:100D200079CF85E88093BC000AC085EC8093BC0035
:100D300010921A0304C0109218030E942102FF911E
:100D4000EF91BF91AF919F918F917F916F915F9143
:100D50004F913F912F910F900FBE0F901F901895BC
:100D6000CF92DF92EF92FF920F931F93CF93DF9377
:100D70006C017A018B01C0E0D0E0CE15DF0589F06F
:100D8000D8016D918D01D601ED91FC910190F0811A
:100D9000E02DC6010995892B11F47E0102C0219630
:100DA000ECCFC701DF91CF911F910F91FF90EF9092
:100DB000DF90CF9008956115710579F0FB010190E6
:100DC0000020E9F73197AF01461B570BDC01ED918D
:100DD000FC910280F381E02D099480E090E0089579
:100DE00020913E0390913D03213208F04AC080914A
:100DF0001A038111FCCF32E030931A0331E03093B3
:100E000019033FEF30931803109217032093160332
:100E1000ADE1B3E046EF52E0FA013E2F341B32174A
:100E200018F43D913193F9CF1092F5022091F5021B
:100E3000990F922B9093F5029091F402913061F406
:100E40001092F4029091F5029093BB009091BC0037
:100E500093FDF8CF95EC01C095EE9093BC00909176
:100E60001A039230E1F3909118039F3F79F080913B
:100E70001803803241F080911803803331F084E010
:100E800005C081E003C082E001C083E010921C0332
:100E900010923E0310921B030895682F85E595E09C
:100EA0000C94A9021092F3021092F20210921C0309
:100EB00010923E0310921A0381E08093190310925E
:100EC000F40261E082E10E941D0361E083E10E947F
:100ED0001D03E9EBF0E080818E7F808380818D7F30
:100EE000808388E48093B80085E48093BC000895F3
:100EF0004F925F926F927F92EF92FF920F931F93A8
:100F0000CF93DF93CDB7DEB7A1970FB6F894DEBFCE
:100F10000FBECDBF7C01FA01CB0119A2223008F42B
:100F20002AE08E010F5D1F4F422E512C612C712C37
:100F3000BF01A30192010E940C0FF901CA010150E7
:100F400011096A3014F4605D01C0695CD8016C93CA
:100F5000232B242B252B61F7B801C7010E94DB0648
:100F6000A1960FB6F894DEBF0FBECDBFDF91CF9133
:100F70001F910F91FF90EF907F906F905F904F9037
:100F800008950F931F93CF93DF93EC010E94DB062C
:100F90008C0165E471E0CE010E94DB06800F911F99
:100FA000DF91CF911F910F9108950C94DB06CF93A1
:100FB000DF93CDB7DEB761970FB6F894DEBF0FBEF3
:100FC000CDBF789484B5826084BD84B5816084BDD2
:100FD00085B5826085BD85B5816085BD80916E00D7
:100FE000816080936E001092810080918100826008
:100FF0008093810080918100816080938100809145
:1010000080008160809380008091B1008460809333
:10101000B1008091B00081608093B00080917A002F
:10102000846080937A0080917A00826080937A0055
:1010300080917A00816080937A0080917A00806844
:1010400080937A001092C1001092510510925205BF
:10105000109253051092540510920F05109210052E
:10106000109211051092120568EB7BE080E090E091
:101070000E94CA038FE393E09093500580934F053D
:10108000E0914F03F091500302E00083E0914B03A5
:10109000F0914C031082E0914D03F0914E0380E1FA
:1010A000808310925703E0915303F091540316E0AC
:1010B0001083E0915103F09152038081806180831D
:1010C000E0915103F0915203808188608083E09128
:1010D0005103F0915203808180688083E091510335
:1010E000F091520380818F7D80830E94040460937D
:1010F0000F0570931005809311059093120566E318
:1011000071E080914F05909150050E94D5076AE0EB
:1011100070E080E090E00E94CA0381E080932305A4
:101120000E940404609348027093490280934A022B
:1011300090934B0210924C0210924D0210924E026C
:1011400010924F0261E083E00E94690360E088E052
:101150000E94690361E088E00E941D0360E089E06D
:101160000E94690361E089E00E941D0360E08AE05B
:101170000E94690361E085E00E94690361E086E006
:101180000E94690361E08BE00E94690361E082E0F4
:101190000E94690361E084E00E94690360E087E0E7
:1011A0000E94690360E08FE00E94690360E080E1D3
:1011B0000E94690360E08CE00E94690361E08DE0B9
:1011C0000E94690361E08EE00E94690360E084E1AF
:1011D0000E94690360E085E10E946903E0914F038A
:1011E000F09150030083E0914B03F0914C03108287
:1011F000E0914D03F0914E0383E3808310925703F7
:10120000E0915303F09154031083E0915103F09166
:101210005203808180618083E0915103F0915203F9
:10122000808188608083E0915103F0915203808136
:1012300080688083E0915103F091520380818F7D1B
:10124000808368E471E08FE393E00E94C10783E745
:1012500091E0909348048093470482E791E0909353
:101260004A04809349048FE691E090934E04809362
:101270004D048EE691E090934C0480934B0488E7F4
:1012800091E0909332048093310487E791E090934A
:10129000300480932F0486E791E090933604809386
:1012A000350485E791E090933C0480933B0484E708
:1012B00091E090933804809337040091E4041091F6
:1012C000E504D8015B961C921E925A9759961C927F
:1012D0001E92589757961C921E9256978DE790E053
:1012E0005D969C938E935C971C968C911C9786318F
:1012F00008F058C02DE230E057963C932E93569755
:101300002BE730E059963C932E93589724E530E034
:101310005B963C932E935A9790916800883050F0DA
:1013200021E08E3008F420E081E001C0880F2A958A
:10133000EAF701C084E0892B80936800F801948566
:10134000983038F09E3040F0963148F020E030E0A0
:1013500008C02DE630E005C02BE630E002C02CE6E8
:1013600030E0D80154963C932E935397983030F444
:1013700081E001C0880F9A95EAF70EC0292F30E06E
:101380009E3018F42850310902C02E50310981E0F6
:1013900001C0880F2A95EAF7F801858B848D958D19
:1013A0000197F1F7D8015A968D919C915B97892B03
:1013B00001F1809192019091930180179107C9F0FA
:1013C000009711F00E946C05F801868D8E7F868F44
:1013D0001092910110929001109393010093920149
:1013E0000388F489E02D9081D80155968C91892B42
:1013F0008083109256041092550410925404109257
:101400005D0410925C0410925B0410925A041092D6
:10141000E3041092600410925F0410925E04109234
:101420006104109262048091530481708260816033
:101430008093530401E012E0F8011292B1E0E93E1A
:10144000FB07D9F760E087E00E941D0360E084E0BD
:101450000E941D03F80162918F0182E00E941D032A
:1014600061E084E00E941D03F1E0093E1F0771F76F
:1014700061E087E00E941D0361E080911F040E94EB
:10148000690360E080911F040E941D038091210484
:1014900090912204892B09F4A0C00E94A503009119
:1014A0002704109128042091290430912A04DC019A
:1014B000CB01801B910BA20BB30BC297A105B10509
:1014C00060F3F89480911D0490911E049A87898797
:1014D000E0912104F0912204DF0111968081898B33
:1014E00090912604E0912B04F0912C0480912D041E
:1014F00091FF2EC09081982B988B908180958923A5
:101500008F878F858C8788E08B8758896F8549897D
:101510003B852C8589859A85508347FD252F3A95F3
:101520002083262F39F0441F00C000006083000094
:1015300000C0F2CF38E04D9160830000019761F761
:10154000F0932C04E0932B04498B3B872C8738C005
:101550009081982B988B9081809589238F878F8598
:101560008E8788E08D8758896F8549893D852E85CE
:1015700089859A85508347FD252F00C000C02083B0
:1015800000C000C000C000C000C060830000262F63
:101590003A9541F0441F000000C000C000C000C0E8
:1015A00000C0E8CF38E04D9100C0608300C00197D3
:1015B00009F7F0932C04E0932B04498B3D872E8789
:1015C0009A87898778940E94A50360932704709373
:1015D00028048093290490932A0480E680932E04A3
:1015E0000E94520780E780931A040E94520780915C
:1015F0001A0411E010931B0380933D0310921C0307
:1016000010923E0381E290E00E944D070E94F00696
:1016100080911A0410931B0380933D0310921C03C6
:1016200010923E0381E890E00E944D070E94F00670
:1016300080911A0410931B0380933D0310921C03A6
:1016400010923E038FEE90E00E944D070E94F0063C
:1016500082E7898391E79A838B8383E78C8384E78E
:101660008D8385E78E8386E78F8387E78887F12CD4
:10167000EE24E3948091EC03F81608F05DC08F2D02
:1016800090E0FC01EE0FFF1FE452FC4F008111813E
:101690000115110509F44EC0E1E0F0E0EC0FFD1F6B
:1016A000E80FF91F8081D8015C968C930E94520745
:1016B000F801848DE0921B0380933D0310921C037C
:1016C00010923E0381E290E00E944D070E94F006D6
:1016D000D8015C968C91E0921B0380933D0310929D
:1016E0001C0310923E0381E890E00E944D070E9487
:1016F000F006F801848DE0921B0380933D03109265
:101700001C0310923E038FEE90E00E944D070E9452
:10171000F006D8015C968C91E0921B0380933D0308
:1017200010921C0310923E0381EA90E00E944D0744
:101730000E94F006F3949ECF84EFC82EDD24D3944C
:10174000E12CF12C98EE892E93E0992EA12CB12C4E
:101750000E940404672B682B692B41F40E94040447
:10176000623071058105910508F404C10E940404EA
:1017700060935402709355028093560290935702DF
:101780000091500210915102209152023091530267
:10179000601771078207930740F4609350027093BB
:1017A0005102809352029093530200915002109183
:1017B000510220915202309153022B013C01401AF8
:1017C000510A620A730A930182010A3F1105210539
:1017D000310508F4CFC0609350027093510280939A
:1017E000520290935302C0921B05D0921C05E092C6
:1017F0001D05F0921E0510921F05109220051092F3
:101800002105109222058091130590911405A09155
:101810001505B09116058093170590931805A093B0
:101820001905B0931A050E94040460931305709380
:10183000140580931505909316050E940404609387
:101840000F057093100580931105909312050E9467
:1018500004042B013C0161E671E080914F059091F9
:1018600050050E94D5072AE041E050E060E070E0BA
:1018700080914F05909150050E94780768E671E0CD
:1018800080914F05909150050E94D5072AE0B30141
:10189000A20180914F05909150050E9478076AE659
:1018A00071E080914F05909150050E94D50780917D
:1018B000130590911405A0911505B0911605B3017B
:1018C000A201481B590B6A0B7B0B2AE080914F0544
:1018D000909150050E9478076AE671E080914F056B
:1018E000909150050E94D507409113055091140521
:1018F0006091150570911605809117059091180556
:10190000A0911905B0911A05481B590B6A0B7B0B66
:101910002AE080914F05909150050E9478076CE66F
:1019200071E080914F05909150050E94D5070E946B
:101930000404AB01BC012AE080914F059091500551
:101940000E9478076EE671E080914F0590915005F6
:101950000E94C10762E070E080E090E00E94CA034C
:101960000E94040460931305709314058093150579
:101970009093160580914C0290914D02A0914E02D9
:10198000B0914F02BC01CD016F5F7F4F8F4F9F4FD2
:1019900060934C0270934D0280934E0290934F02DD
:1019A000A50194010E942E0F672B682B692B09F06B
:1019B0005EC065E771E08FE393E00E94D507409039
:1019C0004C0250904D0260904E0270904F0277FE94
:1019D00014C0E0913F03F09140030190F081E02DAD
:1019E0006DE28FE393E0099544275527BA01441926
:1019F0005509660977092AE003C02AE0B301A2016C
:101A00008FE393E00E94780761E871E08FE393E051
:101A10000E94D5070E9404040091480210914902D7
:101A200020914A0230914B02AB01BC01401B510B8B
:101A3000620B730B2AE08FE393E00E9478076CE857
:101A400071E08FE393E00E94C10710924C02109264
:101A50004D0210924E0210924F020E9404046093B5
:101A600048027093490280934A0290934B020E946D
:101A700064016ECE8091210490912204009711F0B0
:101A80000E94101060E080911F040E9469038AE1A7
:101A900091E09093E7048093E60486EE94E00C9442
:101AA0006C05CF92DF92EF92FF9210924203109258
:101AB000410328EEC22E23E0D22EE12CF12CC0925D
:101AC0004303D0924403E0924503F09246038AE038
:101AD00091E09093400380933F0385EC90E09093D6
:101AE0004C0380934B0384EC90E090934E038093DF
:101AF0004D0380EC90E09093500380934F0381EC72
:101B000090E0909352038093510382EC90E0909385
:101B100054038093530386EC90E090935603809394
:101B20005503109258031092590310925A031092C1
:101B30005B030E9404046093090570930A05809377
:101B40000B0590930C050E94A50360930505709307
:101B5000060580930705909308051092E9041092FA
:101B6000E804C092EA04D092EB04E092EC04F09214
:101B7000ED048AE191E09093E7048093E6041092EB
:101B8000FD041092FC041092FF041092FE041092C7
:101B90000105109200051092030510920205609154
:101BA00004056E7F6D7F609304056695617081E02A
:101BB00068278DE00E941D0361E08DE00E946903AB
:101BC000EBEBF0E0E491E093F604E7EAF0E0E49177
:101BD000F0E0EE0FFF1FEA57FF4F8591949190932D
:101BE000F8048093F70460E08CE00E946903809120
:101BF000040581FD04C061E08CE00E941D038CE0BF
:101C00008093F204EAEBF0E0E491E093F304E6EA77
:101C1000F0E0E491F0E0EE0FFF1FE057FF4F8591F9
:101C200094919093F5048093F40486EE94E090935D
:101C3000E5048093E4041092300410922F04109273
:101C40003204109231041092340410923304109232
:101C50003604109235041092380410923704109212
:101C60003A041092390410923C0410923B041092F2
:101C70003E0410923D041092400410923F041092D2
:101C800042041092410410924404109243041092B2
:101C90004604109245041092480410924704109292
:101CA0004A041092490410924C0410924B04109272
:101CB0004E0410924D041092500410924F04109252
:101CC00052041092510480E290E090931C0480939F
:101CD0001B0480E690E090931E0480931D048AE02C
:101CE00080931F0483E080932604E4EAF0E0E4910B
:101CF000F0E0EE0FFF1FEA57FF4F8591949190930C
:101D00002C0480932B04E8EBF0E0E491E0932D04A5
:101D100080E690E00E947B0F909322048093210440
:101D2000009729F020E6FC0111922A95E9F781E05D
:101D3000809323041092240482E0809325048DEE86
:101D400093E09093DD038093DC031092DF03109205
:101D5000DE031092E1031092E0031092E30310926D
:101D6000E2031092E5031092E4031092E70310924D
:101D7000E6031092E9031092E8031092EB0310922D
:101D8000EA031092EC03ECEDF3E080E02191319155
:101D9000232BE9F58093EC031092130510921405A0
:101DA000109215051092160510921705109218053D
:101DB0001092190510921A0510921B0510921C051D
:101DC00010921D0510921E0510921F0510922005FD
:101DD0001092210510922205109258051092570575
:101DE00088EE93E0A0E0B0E08093590590935A0507
:101DF000A0935B05B0935C058AE291E09093560551
:101E000080935505FF90EF90DF90CF9008958F5FFE
:101E1000883009F0BBCFBECFA1E21A2EAA1BBB1B94
:101E2000FD010DC0AA1FBB1FEE1FFF1FA217B307A6
:101E3000E407F50720F0A21BB30BE40BF50B661FBC
:101E4000771F881F991F1A9469F760957095809580
:101E500090959B01AC01BD01CF010895052E97FB24
:101E60001EF400940E94450F57FD07D00E940C0FEE
:101E700007FC03D04EF40C94450F509540953095D7
:101E800021953F4F4F4F5F4F0895909580957095E6
:101E900061957F4F8F4F9F4F089597FB072E16F444
:101EA000009407D077FD09D00E94610F07FC05D090
:101EB0003EF4909581959F4F0895709561957F4F61
:101EC0000895AA1BBB1B51E107C0AA1FBB1FA61781
:101ED000B70710F0A61BB70B881F991F5A95A9F7D3
:101EE00080959095BC01CD010895EE0FFF1F0590E0
:101EF000F491E02D0994CF93DF938230910510F493
:101F000082E090E0E0916305F091640520E030E02C
:101F1000C0E0D0E0309711F1408151814817590756
:101F2000C0F04817590761F482819381209719F016
:101F30009B838A832BC0909364058093630526C09E
:101F40002115310519F04217530718F49A01BE0103
:101F5000DF01EF010280F381E02DDCCF2115310597
:101F600009F1281B390B2430310590F412968D911C
:101F70009C9113976115710521F0FB019383828376
:101F800004C09093640580936305FD01329644C0BC
:101F9000FD01E20FF31F81939193225031092D939C
:101FA0003C933AC02091610530916205232B41F4A6
:101FB0002091020130910301309362052093610565
:101FC00020910001309101012115310541F42DB717
:101FD0003EB74091040150910501241B350BE0915F
:101FE0006105F0916205E217F307A0F42E1B3F0B89
:101FF0002817390778F0AC014E5F5F4F241735077B
:1020000048F04E0F5F1F5093620540936105819326
:10201000919302C0E0E0F0E0CF01DF91CF9108950D
:102020000F931F93CF93DF93009709F48CC0FC01AB
:102030003297138212820091630510916405011595
:10204000110581F420813181820F931F2091610558
:10205000309162052817390779F5F0936205E0930E
:10206000610571C0D80140E050E0AE17BF0750F4E1
:1020700012962D913C911397AD012115310509F16F
:10208000D901F3CF9D01DA0133832283608171810D
:10209000860F971F8217930769F4EC012881398115
:1020A000260F371F2E5F3F4F318320838A819B810C
:1020B00093838283452B29F4F0936405E0936305B1
:1020C00042C01396FC93EE931297ED0149915991FA
:1020D0009E01240F351FE217F30771F4808191816F
:1020E000840F951F029611969C938E938281938103
:1020F00013969C938E931297E0E0F0E0D80112962D
:102100008D919C911397009719F0F8018C01F6CFEF
:102110008D919C9198012E5F3F4F820F931F2091CC
:102120006105309162052817390769F4309729F461
:10213000109264051092630502C0138212821093FC
:10214000620500936105DF91CF911F910F91089572
:1021500081E090E0F8940C94AD1010E0C2E6D0E07D
:1021600004C0FE010E94750F2196C336D107C9F73E
:04217000F894FFCF11
:10217400000065058000000000009700B0065801CB
:1021840036014A01FB02000000009401B006E80198
:1021940000027B01930100000000A9027902710290
:1021A400620254025302564D4450565F317C315FF3
:1021B400564D4450560D0A0053746172742053797D
:1021C4006E74685F576F726B73746174696F6E3A83
:1021D40000564D4450455F003A323A007C005F5649
:1021E4004D4450450050726F66696C696E673A20C1
:1021F40000206C6F6F707320696E2000206D730077
:107800000C94343C0C94513C0C94513C0C94513CE1
:107810000C94513C0C94513C0C94513C0C94513CB4
:107820000C94513C0C94513C0C94513C0C94513CA4
:107830000C94513C0C94513C0C94513C0C94513C94
:107840000C94513C0C94513C0C94513C0C94513C84
:107850000C94513C0C94513C0C94513C0C94513C74
:107860000C94513C0C94513C11241FBECFEFD8E036
:10787000DEBFCDBF11E0A0E0B1E0ECE9FFE702C060
:1078800005900D92A230B107D9F712E0A2E0B1E065
:1078900001C01D92AD30B107E1F70E942D3D0C945F
:1078A000CC3F0C94003C982F959595959595959582
:1078B000905D8F708A307CF0282F295A8091C0000B
:1078C00085FFFCCF9093C6008091C00085FFFCCF60
:1078D0002093C6000895282F205DF0CF982F809127
:1078E000C00085FFFCCF9093C6000895EF92FF92F1
:1078F0000F931F93EE24FF2487018091C00087FD22
:1079000017C00894E11CF11C011D111D81E4E8164B
:1079100082E4F8068FE0080780E0180770F3E09132
:107920000401F091050109958091C00087FFE9CF1E
:107930008091C6001F910F91FF90EF9008950E94D3
:10794000763C982F8091C00085FFFCCF9093C600B5
:1079500091362CF490330CF09053892F089597555D
:10796000892F08951F930E949F3C182F0E949F3CCF
:107970001295107F810F1F9108951F93182F882350
:1079800021F00E94763C1150E1F71F9108951F935A
:10799000182F0E94763C803249F0809103018F5F5E
:1079A000809303018530C1F01F9108958091C0003C
:1079B00085FFFCCF84E18093C6008091C00085FFE5
:1079C000FCCF1093C6008091C00085FFFCCF80E102
:1079D0008093C6001F910895E0910401F091050184
:1079E00009951F9108950E94763C803241F0809164
:1079F00003018F5F80930301853081F008958091AA
:107A0000C00085FFFCCF84E18093C6008091C00058
:107A100085FFFCCF80E18093C6000895E0910401CA
:107A2000F09105010995089540E951E08823A1F0FE
:107A30002D9A28EE33E0FA013197F1F721503040CA
:107A4000D1F72D9828EE33E0FA013197F1F7215064
:107A50003040D1F7815061F708953F924F925F9285
:107A60006F927F928F929F92AF92BF92CF92DF924E
:107A7000EF92FF920F931F93CF93DF93000080E16B
:107A80008093C4001092C50088E18093C10086E015
:107A90008093C2005098589A259A81E00E94143D24
:107AA00024E1F22E9EE1E92E85E9D82E0FE0C02ECA
:107AB00010E1B12EAA24A394B1E49B2EA6E58A2E50
:107AC000F2E57F2EE0E26E2E79E4572E63E5462E36
:107AD00050E5352E0E94763C8033B1F18133B9F107
:107AE000803409F46FC0813409F476C0823409F41B
:107AF00085C0853409F488C0803531F1823521F1A3
:107B0000813511F1853509F485C0863509F48DC0BC
:107B1000843609F496C0843709F403C1853709F423
:107B200072C1863709F466C0809103018F5F80932C
:107B30000301853079F6E0910401F0910501099582
:107B40000E94763C803351F60E94F33CC3CF0E94E2
:107B5000763C803249F78091C00085FFFCCFF092DF
:107B6000C6008091C00085FFFCCF9092C600809136
:107B7000C00085FFFCCF8092C6008091C00085FFC9
:107B8000FCCF7092C6008091C00085FFFCCF609250
:107B9000C6008091C00085FFFCCF5092C600809146
:107BA000C00085FFFCCF4092C6008091C00085FFD9
:107BB000FCCF3092C6008091C00085FFFCCFB09210
:107BC000C60088CF0E94763C863808F4BDCF0E945C
:107BD000763C0E94F33C7ECF0E94763C803809F4CC
:107BE0009CC0813809F40BC1823809F43CC1883942
:107BF00009F48FC080E00E94C73C6CCF84E10E94F2
:107C0000BD3C0E94F33C66CF85E00E94BD3C0E94D3
:107C1000F33C60CF0E94763C809306010E94763C44
:107C2000809307010E94F33C55CF0E94763C80333D
:107C300009F41DC183E00E94BD3C80E00E94C73C66
:107C400049CF0E94763C809309020E94763C809343
:107C5000080280910C028E7F80930C020E94763C79
:107C6000853409F415C18091080290910902892B8D
:107C700089F000E010E00E94763CF801E85FFE4FDA
:107C800080830F5F1F4F80910802909109020817AF
:107C9000190788F30E94763C803209F045CF809125
:107CA0000C0280FF01C16091060170910701660F0F
:107CB000771F7093070160930601A0910802B091AD
:107CC00009021097C9F0E8E0F1E09B01AD014E0F09
:107CD0005F1FF999FECF32BD21BD819180BDFA9A17
:107CE000F99A2F5F3F4FE417F50799F76A0F7B1F4B
:107CF00070930701609306018091C00085FFFCCF5F
:107D0000F092C6008091C00085FFFCCFB092C60003
:107D1000E1CE83E00E94C73CDDCE82E00E94C73CFA
:107D2000D9CE0E94763C809309020E94763C8093D3
:107D300008028091060190910701880F991F909386
:107D40000701809306010E94763C853409F4A6C0A1
:107D500080910C028E7F80930C020E94763C8032D0
:107D600009F0B8CE8091C00085FFFCCFF092C6002C
:107D7000609108027091090261157105B9F140E046
:107D800050E080910C02A82FA170B82FB27011C0E2
:107D9000BB2309F45CC0E0910601F0910701319624
:107DA000F0930701E09306014F5F5F4F46175707B7
:107DB000E8F4AA2369F3F999FECF209106013091E6
:107DC000070132BD21BDF89A90B58091C00085FFB2
:107DD000FCCF9093C6002F5F3F4F30930701209355
:107DE00006014F5F5F4F4617570718F38091C00099
:107DF00085FDE5CE8091C00085FFF8CFE0CE81E023
:107E00000E94C73C67CE0E94763C803209F08CCE3F
:107E10008091C00085FFFCCFF092C6008091C00029
:107E200085FFFCCFE092C6008091C00085FFFCCFAB
:107E3000D092C6008091C00085FFFCCFC092C600E2
:107E40008091C00085FFFCCFB092C60043CEE09188
:107E50000601F091070194918091C00085FFFCCF4D
:107E60009093C6009CCF80E10E94C73C33CE0E9415
:107E7000763C0E94763C182F0E94763C112309F430
:107E800083C0113009F484C08FE00E94C73C22CE29
:107E900080910C02816080930C02E5CE80910C02EF
:107EA000816080930C0259CF809107018823880F4D
:107EB000880B8A2180930B02809106019091070123
:107EC000880F991F90930701809306018091080203
:107ED00080FF09C080910802909109020196909359
:107EE000090280930802F894F999FECF1127E091D6
:107EF0000601F0910701C8E0D1E08091080290915D
:107F00000902103091F40091570001700130D9F34B
:107F100003E000935700E89500915700017001308D
:107F2000D9F301E100935700E89509901990009169
:107F3000570001700130D9F301E000935700E89534
:107F40001395103498F011270091570001700130FB
:107F5000D9F305E000935700E895009157000170B0
:107F60000130D9F301E100935700E895329602976A
:107F700009F0C7CF103011F00296E5CF112480919F
:107F8000C00085FFB9CEBCCE8EE10E94C73CA2CD19
:0C7F900085E90E94C73C9ECDF894FFCF0D
:027F9C00800063
:040000030000780081
:00000001FF