:100000000C9463000C948B000C948B000C944B04A8
:100010000C944B040C944B040C948B000C948B00AC
:100020000C948B000C948B000C948B000C94FB03B1
:100030000C948B000C948B000C948B000C948B0014
:100040000C94B1030C948B000C94EB020C94C5023D
:100050000C948B000C948B000C948B000C948B00F4
:100060000C94C5040C948B000000000024002700B1
:100070002A0000000008000201000003040700003D
:1000800000000000000000000000250028002B00F8
:1000900000000000230026002900040404040404D6
:1000A0000404020202020202030303030303010227
:1000B00004081020408001020408102001020408F6
:1000C0001020050AE30911241FBECFEFD8E0DEBFE0
:1000D000CDBF11E0A0E0B1E0E2E1FDE102C005909A
:1000E0000D92A639B107D9F724E0A6E9B1E001C025
:1000F0001D92A936B207E1F710E0C2E6D0E004C0D5
:100100002197FE010E946A0CC136D107C9F70E94EF
:1001100024070C947C0E0C940000FC01918D828DC0
:10012000981761F0828DDF01A80FB11D5D968C914B
:10013000928D9F5F9F73928F90E008958FEF9FEF56
:100140000895FC01918D828D981731F0828DE80F12
:10015000F11D858D90E008958FEF9FEF0895FC01CC
:10016000918D228D892F90E0805C9F4F821B910999
:100170008F73992708958AE592E00E94AF0021E0ED
:10018000892B09F420E0822F0895FC01848DDF0182
:10019000A80FB11DA35ABF4F2C91848D90E00196FA
:1001A0008F739927848FA689B7892C93A089B189E9
:1001B0008C9180648C93938D848D981306C00288F3
:1001C000F389E02D80818F7D80830895EF92FF92E7
:1001D0000F931F93CF93DF93EC0181E0888F9B8D6A
:1001E0008C8D981305C0E889F989808185FD24C02C
:1001F000F62E0B8D10E00F5F1F4F0F731127E02EAF
:100200008C8DE8120CC00FB607FCFACFE889F9898B
:10021000808185FFF5CFCE010E94C500F1CF8B8D87
:10022000FE01E80FF11DE35AFF4FF0820B8FEA89C0
:10023000FB898081806207C0EE89FF896083E8893D
:10024000F98980818064808381E090E0DF91CF91A3
:100250001F910F91FF90EF900895CF93DF93EC01E2
:10026000888D8823C9F0EA89FB89808185FD05C0D6
:10027000A889B9898C9186FD0FC00FB607FCF5CF10
:10028000808185FFF2CFA889B9898C9185FFEDCF58
:10029000CE010E94C500E7CFDF91CF91089580E0A5
:1002A00090E0892B29F00E94BB0081110C94000082
:1002B00008953FB7F89480914E0290914F02A0911B
:1002C0005002B091510226B5A89B05C02F3F19F0EE
:1002D0000196A11DB11D3FBFBA2FA92F982F8827C6
:1002E000820F911DA11DB11DBC01CD0142E0660F21
:1002F000771F881F991F4A95D1F708958F929F9273
:10030000AF92BF92CF92DF92EF92FF926B017C018E
:100310000E9459014B015C01C114D104E104F104B4
:10032000F1F00E945901DC01CB0188199909AA0951
:10033000BB09883E9340A105B10570F321E0C21AC4
:10034000D108E108F10888EE880E83E0981EA11C10
:10035000B11CC114D104E104F10419F7DDCFFF9001
:10036000EF90DF90CF90BF90AF909F908F900895C7
:1003700020916303309164032817390771F4909139
:10038000460280914502981741F0E0914602F0E064
:10039000EB5FFD4F808190E008958FEF9FEF089510
:1003A00008951F93CF93DF93DC015C962D913C91D0
:1003B0005D972115310539F481E090E013969C9307
:1003C0008E9312973DC05196ED91FC9152975096A5
:1003D0009C915097892F80951FB75E964C915E97A0
:1003E00041FB772770F941FD6095F89440817723B0
:1003F00011F0492B01C048234083E9012197F1F70F
:1004000048E0508160FF02C0592B01C0582350833F
:10041000E9012197F1F76695415099F7772321F08B
:1004200090818923808303C08081982B90831FBF94
:100430005C968D919C915D970197F1F721E030E0FA
:10044000C901DF91CF911F910895209163033091ED
:1004500064032817390771F4809145022091460200
:1004600090E0805C9F4F821B910960E470E00E94E5
:10047000420C089580E090E008952091630330914C
:10048000640328173907B9F4909146028091450218
:10049000981789F0E0914602F0E0EB5FFD4F808114
:1004A0002091460230E02F5F3F4F2F733327209378
:1004B000460290E008958FEF9FEF089585ED8093B9
:1004C000BC008091BC0084FDFCCF1092DF01089538
:1004D0004091B901262F30E0240F311D2132310522
:1004E000DCF42091DF012430C9F4FC0180E090E0CD
:1004F000861758F43091B9012191DC01A956BE4FFD
:10050000A30FB11D2C930196F3CF8091B901680F11
:100510006093B90180E0089581E0089582E0089534
:1005200008958FEF9FEF08958FEF9FEF08958091CB
:10053000960190E09195819591090895CF93DF936D
:1005400000D0CDB7DEB7CB01642F49835A830E9418
:1005500068024981842F5A81952F0F900F90DF9167
:10056000CF910895CF93DF931F92CDB7DEB7698304
:1005700061E0CE0101960E94680281E090E00F9058
:10058000DF91CF9108950E94670E1F920F920FB6D0
:100590000F9211242F933F934F935F936F937F9309
:1005A0008F939F93AF93BF93EF93FF938AE592E06E
:1005B0000E94C500FF91EF91BF91AF919F918F91E4
:1005C0007F916F915F914F913F912F910F900FBE4F
:1005D0000F901F9018951F920F920FB60F92112433
:1005E0002F938F939F93EF93FF93E0916A02F09183
:1005F0006B028081E0917002F091710282FD12C065
:100600009081809173028F5F8F73209174028217A3
:1006100051F0E0917302F0E0E65AFD4F958F809320
:10062000730201C08081FF91EF919F918F912F9173
:100630000F900FBE0F901F90189590E0FC01EE58A0
:10064000FF4F3491FC01E255FF4F2491FC01E65627
:10065000FF4FE491EE2309F43BC0332339F13330EB
:1006600091F038F43130A9F0323001F584B58F7D46
:1006700012C0373091F03830A1F03430B9F48091A5
:1006800080008F7D03C0809180008F7780938000F1
:100690000DC084B58F7784BD09C08091B0008F777D
:1006A00003C08091B0008F7D8093B000F0E0EE0F2A
:1006B000FF1FEA57FF4FA591B4918FB7F894EC91C3
:1006C000611103C020952E2301C02E2B2C938FBFC8
:1006D0000895CF93DF9390E0FC01E255FF4F249102
:1006E000FC01E656FF4F8491882361F190E0880F6A
:1006F000991FFC01E859FF4FC591D491FC01EA57BD
:10070000FF4FA591B491611109C09FB7F8948881FA
:10071000209582238883EC912E230BC0623061F4F4
:100720009FB7F8943881822F809583238883EC913A
:100730002E2B2C939FBF06C08FB7F894E8812E2BE9
:1007400028838FBFDF91CF9108952FB7F8946091E0
:100750004A0270914B0280914C0290914D022FBF42
:1007600008951F920F920FB60F9211242F933F936B
:100770008F939F93AF93BF9380914A0290914B02C6
:10078000A0914C02B0914D023091490223E0230F19
:100790002D3720F40196A11DB11D05C026E8230FB9
:1007A0000296A11DB11D2093490280934A029093A5
:1007B0004B02A0934C02B0934D0280914E02909157
:1007C0004F02A0915002B09151020196A11DB11D9E
:1007D00080934E0290934F02A0935002B093510227
:1007E000BF91AF919F918F913F912F910F900FBE2D
:1007F0000F901F9018951F920F920FB60F92112411
:100800002F933F934F935F936F937F938F939F9318
:10081000AF93BF93EF93FF9380914702909148026B
:100820008091470290914802892BA1F480916F003A
:100830008D7F80936F00809181008E7F80938100F7
:100840008091B1008E7F8093B10060E08BE00E94C8
:100850001D0307C0809147029091480281958093C3
:10086000B30080914702909148020196909348020C
:1008700080934702FF91EF91BF91AF919F918F912C
:100880007F916F915F914F913F912F910F900FBE8C
:100890000F901F9018951F920F920FB60F92112470
:1008A0002F933F934F935F936F937F938F939F9378
:1008B000AF93BF93EF93FF93E0916303F0916403D1
:1008C000309709F451C0968DA685B785858591FF2F
:1008D00004C09C91892329F447C09C91892309F085
:1008E00043C0A389B4899C918589809589238C9381
:1008F000868997890197F1F7608D718DA685B785F7
:10090000558538E020E0CB010197F1F7822F90E088
:1009100095958795282F4C91452309F020683150F3
:1009200091F7868D81FD20958091450290E001969A
:100930008F73992730914602381749F0A0914502EC
:10094000B0E0AB5FBD4F2C938093450203C0868D12
:100950008160868F828D938D0197F1F7A389B48989
:100960009C918589892B8C93FF91EF91BF91AF91D9
:100970009F918F917F916F915F914F913F912F91B7
:100980000F900FBE0F901F9018951F920F920FB6E9
:100990000F9211242F933F934F935F936F937F9305
:1009A0008F939F93AF93BF93EF93FF938091B90081
:1009B000887F803609F49CC068F5883209F45BC0F2
:1009C00090F4803109F454C038F4882309F4F6C057
:1009D000883009F44DC0F6C0883109F44CC080322B
:1009E00009F45DC0EFC0803409F468C048F4803376
:1009F00009F455C0883309F0E5C08093DE01D8C002
:100A0000803509F44FC0883509F45DC0883409F099
:100A1000D9C0D6C0883909F4C7C0A8F4883709F40A
:100A200067C038F4883609F463C0803709F460C0C1
:100A3000C9C0883809F4B8C0803909F45FC080386B
:100A400009F0C0C05BC0803B09F486C038F4803A2E
:100A500009F466C0883A09F47FC0B4C0803C09F448
:100A6000A7C0883C09F4A4C0883B09F48AC0AAC086
:100A70008091040210C090910302809102029817A5
:100A800070F5E091030281E08E0F80930302F0E0A5
:100A9000EE51FE4F80818093BB0085EC86C0809331
:100AA000DE018EC0E091030281E08E0F809303028D
:100AB0008091BB00F0E0EE51FE4F808390910302E5
:100AC000809102026EC0E091030281E08E0F80935C
:100AD00003028091BB00F0E0EE51FE4F80838091D5
:100AE000E10181116DC081E08093E00184EA61C081
:100AF00083E08093DF011092DD01CFCF8091DD0193
:100B0000803208F051C0E091DD0181E08E0F8093CA
:100B1000DD018091BB00F0E0E354FE4F8083BDCF48
:100B200085EC8093BC001092DF018091DD01803262
:100B300030F4E091DD01F0E0E354FE4F108260916B
:100B4000DD0170E0E091BB01F091BC018DEB91E023
:100B500009951092DD0136C084E08093DF01109288
:100B6000BA011092B901E091B701F091B80109956D
:100B70008091B901811105C081E08093B901109283
:100B80009701E091BA0181E08E0F8093BA01F0E005
:100B9000E956FE4F80818093BB009091BA0180910D
:100BA000B901981708F479CF85E88093BC000AC092
:100BB00085EC8093BC001092DF0104C01092DE012E
:100BC0000E945E02FF91EF91BF91AF919F918F9133
:100BD0007F916F915F914F913F912F910F900FBE39
:100BE0000F901F901895CF92DF92EF92FF920F9384
:100BF0001F93CF93DF936C017A018B01C0E0D0E0AB
:100C0000CE15DF0589F0D8016D918D01D601ED91EA
:100C1000FC910190F081E02DC6010995892B11F41A
:100C20007E0102C02196ECCFC701DF91CF911F91C9
:100C30000F91FF90EF90DF90CF9008950F931F9347
:100C4000CF93DF93EC0188819981009729F02A8165
:100C50003B812617370788F48B016F5F7F4F0E9417
:100C60009D0D009761F0998388831B830A832C81F3
:100C70003D81232B11F4FC01108281E001C080E052
:100C8000DF91CF911F910F910895EAE5F2E0A089DD
:100C9000B18982E08C93A485B5851C92A685B78521
:100CA00080E18C93108EA489B58986E08C93A2890B
:100CB000B3898C9180618C93A289B3898C9188606F
:100CC0008C93A289B3898C9180688C930288F38974
:100CD000E02D80818F7D80830895EF92FF920F93A6
:100CE0001F93CF93DF93FC0124813581611571053A
:100CF00011F480E019C041155105A9F07B01EC0108
:100D00008A01020F131FB8010E941E06882389F36F
:100D1000288139818C819D81B701820F931F0E94A8
:100D2000750E1D830C8381E0DF91CF911F910F9190
:100D3000FF90EF900895EF92FF920F931F93CF9340
:100D4000DF93EC017B018A01BA010E941E06288113
:100D5000398181110DC02115310519F0C9010E9499
:100D6000050D198218821D821C821B821A8206C000
:100D70001D830C83B701C9010E94750ECE01DF915E
:100D8000CF911F910F91FF90EF900895611571051C
:100D900079F0FB0101900020E9F73197AF01461B84
:100DA000570BDC01ED91FC910280F381E02D099459
:100DB00080E090E008954F925F926F927F92EF9261
:100DC000FF920F931F93CF93DF93CDB7DEB7A19719
:100DD0000FB6F894DEBF0FBECDBF7C01FA01CB0188
:100DE00019A2223008F42AE08E010F5D1F4F422E17
:100DF000512C612C712CBF01A30192010E94E90BBF
:100E0000F901CA01015011096A3014F4605D01C092
:100E1000695CD8016C93232B242B252B61F7B80137
:100E2000C7010E94C606A1960FB6F894DEBF0FBE9A
:100E3000CDBFDF91CF911F910F91FF90EF907F90E9
:100E40006F905F904F900895CF93DF93CDB7DEB74B
:100E50002D970FB6F894DEBF0FBECDBF789484B542
:100E6000826084BD84B5816084BD85B5826085BDA6
:100E700085B5816085BD80916E00816080936E0034
:100E80001092810080918100826080938100809126
:100E900081008160809381008091800081608093D7
:100EA00080008091B10084608093B1008091B00097
:100EB00081608093B00080917A00846080937A0092
:100EC00080917A00826080937A0080917A008160BC
:100ED00080937A0080917A00806880937A001092E3
:100EE000C10010923B0310923C0310923D031092FC
:100EF0003E031092F9021092FA021092FB02109235
:100F0000FC0268EB7BE080E090E00E947E018AE5D5
:100F100092E090933A03809339030E9445060E9421
:100F2000A5036093F9027093FA028093FB029093F9
:100F3000FC0266E371E08091390390913A030E94CC
:100F4000C6066AE070E080E090E00E947E0181E0E9
:100F500080930D0361E083E00E94690360E088E014
:100F60000E94690360E089E00E94690360E08AE012
:100F70000E94690361E088E00E941D0361E089E04E
:100F80000E941D0361E085E00E94690361E086E044
:100F90000E94690361E08BE00E94690360E085E0E4
:100FA0000E941D0360E086E00E941D0360E08BE06C
:100FB0000E941D0361E082E00E94690361E084E019
:100FC0000E94690360E087E00E94690360E08FE0AF
:100FD0000E94690360E080E10E94690360E08CE0A8
:100FE0000E94690361E08DE00E94690361E08EE088
:100FF0000E94690360E084E10E94690360E085E18A
:101000000E9469030E94450668E471E08AE592E067
:101010000E94C60665E471E08AE592E00E94C60679
:1010200084EFC82EDD24D394E12CF12C8E010F5FC8
:101030001F4F0E94A503672B682B692B41F40E9468
:10104000A503623071058105910508F40BC10E946A
:10105000A5036093560270935702809358029093B1
:1010600059028090520290905302A0905402B09086
:101070005502681579058A059B0540F46093520274
:1010800070935302809354029093550280905202C1
:1010900090905302A0905402B09055029B01AC0175
:1010A000281939094A095B0949015A013AEF83169F
:1010B0009104A104B10408F4D5C060935202709366
:1010C00053028093540290935502C0920503D0922C
:1010D0000603E0920703F0920803109209031092AE
:1010E0000A0310920B0310920C038091FD02909161
:1010F000FE02A091FF02B091000380930103909340
:101100000203A0930303B09304030E94A50360931A
:10111000FD027093FE028093FF02909300030E94F1
:10112000A5036093F9027093FA028093FB029093F7
:10113000FC020E94A5034B015C0169E671E080910D
:10114000390390913A030E94C6062AE041E050E03C
:1011500060E070E08091390390913A030E94DB06D1
:1011600060E771E08091390390913A030E94C606CE
:101170002AE0B501A4018091390390913A030E94BD
:10118000DB0662E771E08091390390913A030E9497
:10119000C6068091FD029091FE02A091FF02B091DF
:1011A0000003B501A401481B590B6A0B7B0B2AE015
:1011B0008091390390913A030E94DB0662E771E067
:1011C0008091390390913A030E94C6064091FD0236
:1011D0005091FE026091FF02709100038091010323
:1011E00090910203A0910303B0910403481B590B93
:1011F0006A0B7B0B2AE08091390390913A030E949D
:10120000DB0664E771E08091390390913A030E9414
:10121000C6060E94A503AB01BC012AE080913903F8
:1012200090913A030E94DB06A0903903B0903A03F4
:1012300066E771E0C5010E94C60665E471E0C5017C
:101240000E94C60665E070E080E090E00E947E01AA
:101250000E94A5036093FD027093FE028093FF023B
:10126000909300038AE592E00E94AF0018161906D9
:101270000CF066C08AE592E00E948D00E0915A026F
:10128000F0915B020190F081E02D682F8AE592E0F9
:10129000099541E050E066E471E08DE593E00E943D
:1012A0006D06198618861B861A861D861C8642E1E5
:1012B00050E06DE771E0CE0108960E949B064AE07F
:1012C000B80186E090E00E94BF0BF8010190002079
:1012D000E9F73197AF01401B510BB801CE010896D9
:1012E0000E946D0644E050E060E971E0CE0108968E
:1012F0000E946D06409161035091620360915D030D
:1013000070915E03CE0108960E946D064C855D8546
:10131000688579858AE592E00E94F30565E471E0CD
:101320008AE592E00E94C60640E050E067E471E082
:101330008DE593E00E949B06888599850E94050DA6
:101340000E94A50360935303709354038093550345
:10135000909356038090570390905803A0905903A0
:10136000B0905A039B01AC01281939094A095B095D
:1013700049015A0130ED831637E09306A104B10408
:10138000FCF0609357037093580380935903909334
:101390005A0380914B0390914C03892B39F481E0DF
:1013A00090E090934C0380934B0304C010924C0345
:1013B00010924B0360914B03809141030E941D03E7
:1013C0000E944F0136CE80915D0390915E030E9492
:1013D000050D8AE291E09093470480934604809142
:1013E0006303909164038654944071F4E09159042E
:1013F000F0915A04908180915B04809589238083C9
:10140000109264031092630308950F931F93CF9378
:10141000DF93CDB7DEB762970FB6F894DEBF0FBE8D
:10142000CDBF10925D0210925C0288EE93E0A0E0C6
:10143000B0E080935E0290935F02A0936002B0934D
:1014400061022AE031E030935B0220935A0225ECDE
:1014500030E0309367022093660224EC30E0309352
:1014600069022093680220EC30E030936B022093F5
:101470006A0221EC30E030936D0220936C0222EC82
:1014800030E030936F0220936E0226EC30E0309310
:1014900071022093700210927302109274021092E3
:1014A00075021092760210924904109248048093BB
:1014B0004A0490934B04A0934C04B0934D048AE2E9
:1014C00091E0909347048093460410925D0410923B
:1014D0005C0410925F0410925E04109261041092FA
:1014E00060041092630410926204609164046E7F41
:1014F0006D7F609364046695617081E068278DE07C
:101500000E941D0361E08DE00E946903EBEBF0E0B7
:10151000E491E0935604E7EAF0E0E491F0E0EE0FA6
:10152000FF1FEA57FF4F8591949190935804809341
:10153000570460E08CE00E9469038091640481FD9F
:1015400004C061E08CE00E941D038CE08093520493
:10155000EAEBF0E0E491E0935304E6EAF0E0E49192
:10156000F0E0EE0FFF1FE057FF4F859194919093AD
:1015700055048093540486E494E09093450480934A
:1015800044041092900310928F03109292031092D1
:101590009103109294031092930310929603109269
:1015A0009503109298031092970310929A03109249
:1015B000990310929C0310929B0310929E03109229
:1015C0009D031092A00310929F031092A203109209
:1015D000A1031092A4031092A3031092A6031092E9
:1015E000A5031092A8031092A7031092AA031092C9
:1015F000A9031092AC031092AB031092AE031092A9
:10160000AD031092B0031092AF031092B203109288
:10161000B1031092FD021092FE021092FF0210928E
:101620000003109201031092020310920303109220
:101630000403109205031092060310920703109200
:1016400008031092090310920A0310920B031092E0
:101650000C03109268031092670388EE93E0A0E0F9
:10166000B0E08093690390936A03A0936B03B093F7
:101670006C038AE191E09093660380936503109276
:101680005E0310925D031092600310925F0310924C
:101690006203109261034AE08E010F5F1F4FB80191
:1016A00080E290E00E94B40BF80101900020E9F77D
:1016B0003197AF01401B510BB8018DE593E00E94BB
:1016C0009B061092400310923F038DE090E09093B0
:1016D00042038093410310924C0310924B0301E0AC
:1016E00014E010934A03009349030E94A5036093FA
:1016F0005703709358038093590390935A0381E0E2
:1017000090E0909372038093710385E090E0909352
:1017100076038093750386E090E09093780380933E
:1017200077038BE090E090937A0380937903109293
:101730007E0310927D0310937C0300937B030E9431
:10174000A5036093890370938A0380938B0390931E
:101750008C0362960FB6F894DEBF0FBECDBFDF914B
:10176000CF911F910F910895BB274A3031F49923EF
:1017700022F4BDE2909581959F4F0C94C00BBB273E
:10178000FB015527AA27880F991FAA1FA41710F03D
:10179000A41B83955051B9F7A05DAA3308F0A95D49
:1017A000A193009779F7B111B1931192CB010C94E9
:1017B000D90BDC01FC01672F71917723E1F7329798
:1017C00004C07C916D9370836291AE17BF07C8F31C
:1017D0000895A1E21A2EAA1BBB1BFD010DC0AA1F72
:1017E000BB1FEE1FFF1FA217B307E407F50720F08A
:1017F000A21BB30BE40BF50B661F771F881F991F05
:101800001A9469F760957095809590959B01AC014D
:10181000BD01CF0108952F923F924F925F926F9238
:101820007F928F929F92AF92BF92CF92DF92EF9270
:10183000FF920F931F93CF93DF93CDB7DEB7CA1BF1
:10184000DB0B0FB6F894DEBF0FBECDBF09942A881C
:10185000398848885F846E847D848C849B84AA84C4
:10186000B984C884DF80EE80FD800C811B81AA8151
:10187000B981CE0FD11D0FB6F894DEBF0FBECDBF1C
:10188000ED01089597FB072E16F4009407D077FD1D
:1018900009D00E94560C07FC05D03EF49095819526
:1018A0009F4F0895709561957F4F0895AA1BBB1BAC
:1018B00051E107C0AA1FBB1FA617B70710F0A61B50
:1018C000B70B881F991F5A95A9F780959095BC0171
:1018D000CD010895EE0FFF1F0590F491E02D0994BE
:1018E000CF93DF938230910510F482E090E0E09195
:1018F0006704F091680420E030E0C0E0D0E0309769
:1019000011F14081518148175907C0F04817590714
:1019100061F482819381209719F09B838A832BC085
:10192000909368048093670426C02115310519F04F
:101930004217530718F49A01BE01DF01EF0102803C
:10194000F381E02DDCCF2115310509F1281B390B7E
:101950002430310590F412968D919C911397611566
:10196000710521F0FB019383828304C09093680486
:1019700080936704FD01329644C0FD01E20FF31F1E
:1019800081939193225031092D933C933AC0209139
:10199000650430916604232B41F4209102013091BB
:1019A0000301309366042093650420910001309177
:1019B00001012115310541F42DB73EB740910401D5
:1019C00050910501241B350BE0916504F0916604EC
:1019D000E217F307A0F42E1B3F0B2817390778F006
:1019E000AC014E5F5F4F2417350748F04E0F5F1F65
:1019F00050936604409365048193919302C0E0E0A4
:101A0000F0E0CF01DF91CF9108950F931F93CF9313
:101A1000DF93009709F48CC0FC0132971382128285
:101A200000916704109168040115110581F420816B
:101A30003181820F931F209165043091660428172D
:101A4000390779F5F0936604E093650471C0D80115
:101A500040E050E0AE17BF0750F412962D913C9134
:101A60001397AD012115310509F1D901F3CF9D017E
:101A7000DA013383228360817181860F971F821779
:101A8000930769F4EC0128813981260F371F2E5FF7
:101A90003F4F318320838A819B8193838283452BAF
:101AA00029F4F0936804E093670442C01396FC9312
:101AB000EE931297ED01499159919E01240F351F24
:101AC000E217F30771F480819181840F951F0296CC
:101AD00011969C938E938281938113969C938E93FF
:101AE0001297E0E0F0E0D80112968D919C91139747
:101AF000009719F0F8018C01F6CF8D919C91980117
:101B00002E5F3F4F820F931F209165043091660432
:101B10002817390769F4309729F410926804109255
:101B2000670402C013821282109366040093650456
:101B3000DF91CF911F910F910895A0E0B0E0E3EA0B
:101B4000FDE00C940F0CEC01009721F4CB010E94F6
:101B5000700CB8C0FC01E60FF71F9C012250310940
:101B6000E217F30708F4ACC0D9010D911C9111974D
:101B700006171707B0F00530110508F49FC0C8011B
:101B800004978617970708F499C002501109061B9D
:101B9000170B019311936D937C93CF010E94050D58
:101BA0008DC05B01A01AB10A4C01800E911EA0915C
:101BB0006704B091680440E050E0E12CF12C1097EC
:101BC00009F44AC0A815B905D1F56D907C9011971C
:101BD000630182E0C80ED11CCA14DB0480F1A301AA
:101BE0004A195B096A0182E0C80ED11C1296BC90AA
:101BF00012971396AC91B5E0CB16D10440F0B282A7
:101C0000A38351834083D9016D937C930AC00E5FF7
:101C10001F4FC301800F911FF90191838083EB2D2A
:101C2000FA2FE114F10431F0D7011396FC93EE93EF
:101C3000129744C0F0936804E09367043FC08D910D
:101C40009C9111974817590708F4AC017D01129631
:101C50000D90BC91A02DB3CF809165049091660446
:101C600088159905E1F446175707C8F480910001DB
:101C700090910101009741F48DB79EB74091040106
:101C800050910501841B950BE817F907C8F4F093F0
:101C90006604E0936504F901718360830FC0CB0192
:101CA0000E94700C7C01009759F0A801BE010E94AF
:101CB0006C0ECE010E94050DC70104C0CE0102C00A
:101CC00080E090E0CDB7DEB7EEE00C942B0C81E025
:101CD00090E0F8940C947C0EFB01DC0102C00190B2
:101CE0000D9241505040D8F70895FB01DC0101905E
:101CF0000D920020E1F7089510E0C2E6D0E004C0A4
:101D0000FE010E946A0C2196C336D107C9F7F894E8
:021D1000FFCF03
:101D120000006904800000000000E600F305AF0047
:101D22008D00A1002D0100000000B2029E02970268
:101D320094029102900200000000D101F3052502F5
:101D42003D02B801D001564D4450565F317C315F9F
:101D5200564D4450560D0A0053796E746865736986
:101D62007A657220576F726B73746174696F6E203B
:101D7200737461727465642100564D4450455F006E
:101D82003A323A007C005F564D445045007265631A
:101D9200656976656420636F6D6D616E64202800ED
:061DA20062293A20000056
:107800000C94343C0C94513C0C94513C0C94513CE1
:107810000C94513C0C94513C0C94513C0C94513CB4
:107820000C94513C0C94513C0C94513C0C94513CA4
:107830000C94513C0C94513C0C94513C0C94513C94
:107840000C94513C0C94513C0C94513C0C94513C84
:107850000C94513C0C94513C0C94513C0C94513C74
:107860000C94513C0C94513C11241FBECFEFD8E036
:10787000DEBFCDBF11E0A0E0B1E0ECE9FFE702C060
:1078800005900D92A230B107D9F712E0A2E0B1E065
:1078900001C01D92AD30B107E1F70E942D3D0C945F
:1078A000CC3F0C94003C982F959595959595959582
:1078B000905D8F708A307CF0282F295A8091C0000B
:1078C00085FFFCCF9093C6008091C00085FFFCCF60
:1078D0002093C6000895282F205DF0CF982F809127
:1078E000C00085FFFCCF9093C6000895EF92FF92F1
:1078F0000F931F93EE24FF2487018091C00087FD22
:1079000017C00894E11CF11C011D111D81E4E8164B
:1079100082E4F8068FE0080780E0180770F3E09132
:107920000401F091050109958091C00087FFE9CF1E
:107930008091C6001F910F91FF90EF9008950E94D3
:10794000763C982F8091C00085FFFCCF9093C600B5
:1079500091362CF490330CF09053892F089597555D
:10796000892F08951F930E949F3C182F0E949F3CCF
:107970001295107F810F1F9108951F93182F882350
:1079800021F00E94763C1150E1F71F9108951F935A
:10799000182F0E94763C803249F0809103018F5F5E
:1079A000809303018530C1F01F9108958091C0003C
:1079B00085FFFCCF84E18093C6008091C00085FFE5
:1079C000FCCF1093C6008091C00085FFFCCF80E102
:1079D0008093C6001F910895E0910401F091050184
:1079E00009951F9108950E94763C803241F0809164
:1079F00003018F5F80930301853081F008958091AA
:107A0000C00085FFFCCF84E18093C6008091C00058
:107A100085FFFCCF80E18093C6000895E0910401CA
:107A2000F09105010995089540E951E08823A1F0FE
:107A30002D9A28EE33E0FA013197F1F721503040CA
:107A4000D1F72D9828EE33E0FA013197F1F7215064
:107A50003040D1F7815061F708953F924F925F9285
:107A60006F927F928F929F92AF92BF92CF92DF924E
:107A7000EF92FF920F931F93CF93DF93000080E16B
:107A80008093C4001092C50088E18093C10086E015
:107A90008093C2005098589A259A81E00E94143D24
:107AA00024E1F22E9EE1E92E85E9D82E0FE0C02ECA
:107AB00010E1B12EAA24A394B1E49B2EA6E58A2E50
:107AC000F2E57F2EE0E26E2E79E4572E63E5462E36
:107AD00050E5352E0E94763C8033B1F18133B9F107
:107AE000803409F46FC0813409F476C0823409F41B
:107AF00085C0853409F488C0803531F1823521F1A3
:107B0000813511F1853509F485C0863509F48DC0BC
:107B1000843609F496C0843709F403C1853709F423
:107B200072C1863709F466C0809103018F5F80932C
:107B30000301853079F6E0910401F0910501099582
:107B40000E94763C803351F60E94F33CC3CF0E94E2
:107B5000763C803249F78091C00085FFFCCFF092DF
:107B6000C6008091C00085FFFCCF9092C600809136
:107B7000C00085FFFCCF8092C6008091C00085FFC9
:107B8000FCCF7092C6008091C00085FFFCCF609250
:107B9000C6008091C00085FFFCCF5092C600809146
:107BA000C00085FFFCCF4092C6008091C00085FFD9
:107BB000FCCF3092C6008091C00085FFFCCFB09210
:107BC000C60088CF0E94763C863808F4BDCF0E945C
:107BD000763C0E94F33C7ECF0E94763C803809F4CC
:107BE0009CC0813809F40BC1823809F43CC1883942
:107BF00009F48FC080E00E94C73C6CCF84E10E94F2
:107C0000BD3C0E94F33C66CF85E00E94BD3C0E94D3
:107C1000F33C60CF0E94763C809306010E94763C44
:107C2000809307010E94F33C55CF0E94763C80333D
:107C300009F41DC183E00E94BD3C80E00E94C73C66
:107C400049CF0E94763C809309020E94763C809343
:107C5000080280910C028E7F80930C020E94763C79
:107C6000853409F415C18091080290910902892B8D
:107C700089F000E010E00E94763CF801E85FFE4FDA
:107C800080830F5F1F4F80910802909109020817AF
:107C9000190788F30E94763C803209F045CF809125
:107CA0000C0280FF01C16091060170910701660F0F
:107CB000771F7093070160930601A0910802B091AD
:107CC00009021097C9F0E8E0F1E09B01AD014E0F09
:107CD0005F1FF999FECF32BD21BD819180BDFA9A17
:107CE000F99A2F5F3F4FE417F50799F76A0F7B1F4B
:107CF00070930701609306018091C00085FFFCCF5F
:107D0000F092C6008091C00085FFFCCFB092C60003
:107D1000E1CE83E00E94C73CDDCE82E00E94C73CFA
:107D2000D9CE0E94763C809309020E94763C8093D3
:107D300008028091060190910701880F991F909386
:107D40000701809306010E94763C853409F4A6C0A1
:107D500080910C028E7F80930C020E94763C8032D0
:107D600009F0B8CE8091C00085FFFCCFF092C6002C
:107D7000609108027091090261157105B9F140E046
:107D800050E080910C02A82FA170B82FB27011C0E2
:107D9000BB2309F45CC0E0910601F0910701319624
:107DA000F0930701E09306014F5F5F4F46175707B7
:107DB000E8F4AA2369F3F999FECF209106013091E6
:107DC000070132BD21BDF89A90B58091C00085FFB2
:107DD000FCCF9093C6002F5F3F4F30930701209355
:107DE00006014F5F5F4F4617570718F38091C00099
:107DF00085FDE5CE8091C00085FFF8CFE0CE81E023
:107E00000E94C73C67CE0E94763C803209F08CCE3F
:107E10008091C00085FFFCCFF092C6008091C00029
:107E200085FFFCCFE092C6008091C00085FFFCCFAB
:107E3000D092C6008091C00085FFFCCFC092C600E2
:107E40008091C00085FFFCCFB092C60043CEE09188
:107E50000601F091070194918091C00085FFFCCF4D
:107E60009093C6009CCF80E10E94C73C33CE0E9415
:107E7000763C0E94763C182F0E94763C112309F430
:107E800083C0113009F484C08FE00E94C73C22CE29
:107E900080910C02816080930C02E5CE80910C02EF
:107EA000816080930C0259CF809107018823880F4D
:107EB000880B8A2180930B02809106019091070123
:107EC000880F991F90930701809306018091080203
:107ED00080FF09C080910802909109020196909359
:107EE000090280930802F894F999FECF1127E091D6
:107EF0000601F0910701C8E0D1E08091080290915D
:107F00000902103091F40091570001700130D9F34B
:107F100003E000935700E89500915700017001308D
:107F2000D9F301E100935700E89509901990009169
:107F3000570001700130D9F301E000935700E89534
:107F40001395103498F011270091570001700130FB
:107F5000D9F305E000935700E895009157000170B0
:107F60000130D9F301E100935700E895329602976A
:107F700009F0C7CF103011F00296E5CF112480919F
:107F8000C00085FFB9CEBCCE8EE10E94C73CA2CD19
:0C7F900085E90E94C73C9ECDF894FFCF0D
:027F9C00800063
:040000030000780081
:00000001FF