:100000000C9463000C948B000C948B000C944B04A8
:100010000C944B040C944B040C948B000C948B00AC
:100020000C948B000C948B000C948B000C94FB03B1
:100030000C948B000C948B000C948B000C948B0014
:100040000C94B1030C948B000C94EB020C94C5023D
:100050000C948B000C948B000C948B000C948B00F4
:100060000C94C5040C948B000000000024002700B1
:100070002A0000000008000201000003040700003D
:1000800000000000000000000000250028002B00F8
:1000900000000000230026002900040404040404D6
:1000A0000404020202020202030303030303010227
:1000B00004081020408001020408102001020408F6
:1000C00010209D087B0811241FBECFEFD8E0DEBFB3
:1000D000CDBF11E0A0E0B1E0EEEFF9E102C0059084
:1000E0000D92A238B107D9F724E0A2E8B1E001C02F
:1000F0001D92AD34B207E1F710E0C2E6D0E004C0D3
:100100002197FE010E94E00AC136D107C9F70E947B
:10011000DB060C94F20C0C940000FC01918D828D96
:10012000981761F0828DDF01A80FB11D5D968C914B
:10013000928D9F5F9F73928F90E008958FEF9FEF56
:100140000895FC01918D828D981731F0828DE80F12
:10015000F11D858D90E008958FEF9FEF0895FC01CC
:10016000918D228D892F90E0805C9F4F821B910999
:100170008F73992708958EE392E00E94AF0021E0EB
:10018000892B09F420E0822F0895FC01848DDF0182
:10019000A80FB11DA35ABF4F2C91848D90E00196FA
:1001A0008F739927848FA689B7892C93A089B189E9
:1001B0008C9180648C93938D848D981306C00288F3
:1001C000F389E02D80818F7D80830895EF92FF92E7
:1001D0000F931F93CF93DF93EC0181E0888F9B8D6A
:1001E0008C8D981305C0E889F989808185FD24C02C
:1001F000F62E0B8D10E00F5F1F4F0F731127E02EAF
:100200008C8DE8120CC00FB607FCFACFE889F9898B
:10021000808185FFF5CFCE010E94C500F1CF8B8D87
:10022000FE01E80FF11DE35AFF4FF0820B8FEA89C0
:10023000FB898081806207C0EE89FF896083E8893D
:10024000F98980818064808381E090E0DF91CF91A3
:100250001F910F91FF90EF900895CF93DF93EC01E2
:10026000888D8823C9F0EA89FB89808185FD05C0D6
:10027000A889B9898C9186FD0FC00FB607FCF5CF10
:10028000808185FFF2CFA889B9898C9185FFEDCF58
:10029000CE010E94C500E7CFDF91CF91089580E0A5
:1002A00090E0892B29F00E94BB0081110C94000082
:1002B00008953FB7F89480913A0290913B02A09143
:1002C0003C02B0913D0226B5A89B05C02F3F19F016
:1002D0000196A11DB11D3FBFBA2FA92F982F8827C6
:1002E000820F911DA11DB11DBC01CD0142E0660F21
:1002F000771F881F991F4A95D1F708958F929F9273
:10030000AF92BF92CF92DF92EF92FF926B017C018E
:100310000E9459014B015C01C114D104E104F104B4
:10032000F1F00E945901DC01CB0188199909AA0951
:10033000BB09883E9340A105B10570F321E0C21AC4
:10034000D108E108F10888EE880E83E0981EA11C10
:10035000B11CC114D104E104F10419F7DDCFFF9001
:10036000EF90DF90CF90BF90AF909F908F900895C7
:1003700020914703309148032817390771F4909171
:10038000320280913102981741F0E0913202F0E0A0
:10039000EF50FE4F808190E008958FEF9FEF08951A
:1003A00008951F93CF93DF93DC015C962D913C91D0
:1003B0005D972115310539F481E090E013969C9307
:1003C0008E9312973DC05196ED91FC9152975096A5
:1003D0009C915097892F80951FB75E964C915E97A0
:1003E00041FB772770F941FD6095F89440817723B0
:1003F00011F0492B01C048234083E9012197F1F70F
:1004000048E0508160FF02C0592B01C0582350833F
:10041000E9012197F1F76695415099F7772321F08B
:1004200090818923808303C08081982B90831FBF94
:100430005C968D919C915D970197F1F721E030E0FA
:10044000C901DF91CF911F91089520914703309109
:1004500048032817390771F4809131022091320244
:1004600090E0805C9F4F821B910960E470E00E94E5
:10047000B80A089580E090E00895209147033091F4
:10048000480328173907B9F490913202809131025C
:10049000981789F0E0913202F0E0EF50FE4F808132
:1004A0002091320230E02F5F3F4F2F73332720938C
:1004B000320290E008958FEF9FEF089585ED8093CD
:1004C000BC008091BC0084FDFCCF1092CB0108954C
:1004D0004091A501262F30E0240F311D2132310536
:1004E000DCF42091CB012430C9F4FC0180E090E0E1
:1004F000861758F43091A5012191DC01AD57BE4F0C
:10050000A30FB11D2C930196F3CF8091A501680F25
:100510006093A50180E0089581E0089582E0089548
:1005200008958FEF9FEF08958FEF9FEF08958091CB
:10053000820190E09195819591090895CF93DF9381
:1005400000D0CDB7DEB7CB01642F49835A830E9418
:1005500068024981842F5A81952F0F900F90DF9167
:10056000CF910895CF93DF931F92CDB7DEB7698304
:1005700061E0CE0101960E94680281E090E00F9058
:10058000DF91CF9108950E94DD0C1F920F920FB65C
:100590000F9211242F933F934F935F936F937F9309
:1005A0008F939F93AF93BF93EF93FF938EE392E06C
:1005B0000E94C500FF91EF91BF91AF919F918F91E4
:1005C0007F916F915F914F913F912F910F900FBE4F
:1005D0000F901F9018951F920F920FB60F92112433
:1005E0002F938F939F93EF93FF93E0914E02F0919F
:1005F0004F028081E0915402F091550282FD12C0B9
:100600009081809157028F5F8F73209158028217DB
:1006100051F0E0915702F0E0E25CFD4F958F80933E
:10062000570201C08081FF91EF919F918F912F918F
:100630000F900FBE0F901F90189590E0FC01EE58A0
:10064000FF4F3491FC01E255FF4F2491FC01E65627
:10065000FF4FE491EE2309F43BC0332339F13330EB
:1006600091F038F43130A9F0323001F584B58F7D46
:1006700012C0373091F03830A1F03430B9F48091A5
:1006800080008F7D03C0809180008F7780938000F1
:100690000DC084B58F7784BD09C08091B0008F777D
:1006A00003C08091B0008F7D8093B000F0E0EE0F2A
:1006B000FF1FEA57FF4FA591B4918FB7F894EC91C3
:1006C000611103C020952E2301C02E2B2C938FBFC8
:1006D0000895CF93DF9390E0FC01E255FF4F249102
:1006E000FC01E656FF4F8491882361F190E0880F6A
:1006F000991FFC01E859FF4FC591D491FC01EA57BD
:10070000FF4FA591B491611109C09FB7F8948881FA
:10071000209582238883EC912E230BC0623061F4F4
:100720009FB7F8943881822F809583238883EC913A
:100730002E2B2C939FBF06C08FB7F894E8812E2BE9
:1007400028838FBFDF91CF9108952FB7F8946091E0
:1007500036027091370280913802909139022FBF92
:1007600008951F920F920FB60F9211242F933F936B
:100770008F939F93AF93BF938091360290913702EE
:10078000A0913802B09139023091350223E0230F55
:100790002D3720F40196A11DB11D05C026E8230FB9
:1007A0000296A11DB11D20933502809336029093CD
:1007B0003702A0933802B093390280913A029091A7
:1007C0003B02A0913C02B0913D020196A11DB11DDA
:1007D00080933A0290933B02A0933C02B0933D0277
:1007E000BF91AF919F918F913F912F910F900FBE2D
:1007F0000F901F9018951F920F920FB60F92112411
:100800002F933F934F935F936F937F938F939F9318
:10081000AF93BF93EF93FF93809133029091340293
:100820008091330290913402892BA1F480916F0062
:100830008D7F80936F00809181008E7F80938100F7
:100840008091B1008E7F8093B10060E08BE00E94C8
:100850001D0307C0809133029091340281958093EB
:10086000B300809133029091340201969093340248
:1008700080933302FF91EF91BF91AF919F918F9140
:100880007F916F915F914F913F912F910F900FBE8C
:100890000F901F9018951F920F920FB60F92112470
:1008A0002F933F934F935F936F937F938F939F9378
:1008B000AF93BF93EF93FF93E0914703F091480309
:1008C000309709F451C0968DA685B785858591FF2F
:1008D00004C09C91892329F447C09C91892309F085
:1008E00043C0A389B4899C918589809589238C9381
:1008F000868997890197F1F7608D718DA685B785F7
:10090000558538E020E0CB010197F1F7822F90E088
:1009100095958795282F4C91452309F020683150F3
:1009200091F7868D81FD20958091310290E00196AE
:100930008F73992730913202381749F0A091310214
:10094000B0E0AF50BE4F2C938093310203C0868D30
:100950008160868F828D938D0197F1F7A389B48989
:100960009C918589892B8C93FF91EF91BF91AF91D9
:100970009F918F917F916F915F914F913F912F91B7
:100980000F900FBE0F901F9018951F920F920FB6E9
:100990000F9211242F933F934F935F936F937F9305
:1009A0008F939F93AF93BF93EF93FF938091B90081
:1009B000887F803609F49CC068F5883209F45BC0F2
:1009C00090F4803109F454C038F4882309F4F6C057
:1009D000883009F44DC0F6C0883109F44CC080322B
:1009E00009F45DC0EFC0803409F468C048F4803376
:1009F00009F455C0883309F0E5C08093CA01D8C016
:100A0000803509F44FC0883509F45DC0883409F099
:100A1000D9C0D6C0883909F4C7C0A8F4883709F40A
:100A200067C038F4883609F463C0803709F460C0C1
:100A3000C9C0883809F4B8C0803909F45FC080386B
:100A400009F0C0C05BC0803B09F486C038F4803A2E
:100A500009F466C0883A09F47FC0B4C0803C09F448
:100A6000A7C0883C09F4A4C0883B09F48AC0AAC086
:100A70008091F00110C09091EF018091EE019817E4
:100A800070F5E091EF0181E08E0F8093EF01F0E0CF
:100A9000E253FE4F80818093BB0085EC86C080933B
:100AA000CA018EC0E091EF0181E08E0F8093EF01CB
:100AB0008091BB00F0E0E253FE4F80839091EF0104
:100AC0008091EE016EC0E091EF0181E08E0F809386
:100AD000EF018091BB00F0E0E253FE4F80838091F4
:100AE000CD0181116DC081E08093CC0184EA61C0A9
:100AF00083E08093CB011092C901CFCF8091C901CF
:100B0000803208F051C0E091C90181E08E0F8093DE
:100B1000C9018091BB00F0E0E755FE4F8083BDCF57
:100B200085EC8093BC001092CB018091C90180328A
:100B300030F4E091C901F0E0E755FE4F108260917A
:100B4000C90170E0E091A701F091A80189EA91E064
:100B500009951092C90136C084E08093CB011092B0
:100B6000A6011092A501E091A301F091A4010995BD
:100B70008091A501811105C081E08093A5011092AB
:100B80008301E091A60181E08E0F8093A601F0E041
:100B9000ED57FE4F80818093BB009091A60180911C
:100BA000A501981708F479CF85E88093BC000AC0A6
:100BB00085EC8093BC001092CB0104C01092CA0156
:100BC0000E945E02FF91EF91BF91AF919F918F9133
:100BD0007F916F915F914F913F912F910F900FBE39
:100BE0000F901F901895CF92DF92EF92FF920F9384
:100BF0001F93CF93DF936C017A018B01C0E0D0E0AB
:100C0000CE15DF0589F0D8016D918D01D601ED91EA
:100C1000FC910190F081E02DC6010995892B11F41A
:100C20007E0102C02196ECCFC701DF91CF911F91C9
:100C30000F91FF90EF90DF90CF9008950F931F9347
:100C4000CF93DF93EC0188819981009729F02A8165
:100C50003B812617370788F48B016F5F7F4F0E9417
:100C6000130C009761F0998388831B830A832C817E
:100C70003D81232B11F4FC01108281E001C080E052
:100C8000DF91CF911F910F910895EEE3F2E0A089DB
:100C9000B18982E08C93A485B5851C92A685B78521
:100CA00080E18C93108EA489B58986E08C93A2890B
:100CB000B3898C9180618C93A289B3898C9188606F
:100CC0008C93A289B3898C9180688C930288F38974
:100CD000E02D80818F7D80830895EF92FF920F93A6
:100CE0001F93CF93DF93FC0124813581611571053A
:100CF00011F480E019C041155105A9F07B01EC0108
:100D00008A01020F131FB8010E941E06882389F36F
:100D1000288139818C819D81B701820F931F0E94A8
:100D2000EB0C1D830C8381E0DF91CF911F910F911C
:100D3000FF90EF900895EF92FF920F931F93CF9340
:100D4000DF93EC017B018A01BA010E941E06288113
:100D5000398181110DC02115310519F0C9010E9499
:100D60007B0B198218821D821C821B821A8206C08C
:100D70001D830C83B701C9010E94EB0CCE01DF91EA
:100D8000CF911F910F91FF90EF900895611571051C
:100D900079F0FB0101900020E9F73197AF01461B84
:100DA000570BDC01ED91FC910280F381E02D099459
:100DB00080E090E00895CF93DF93CDB7DEB72D9715
:100DC0000FB6F894DEBF0FBECDBF789484B58260B5
:100DD00084BD84B5816084BD85B5826085BD85B5DF
:100DE000816085BD80916E00816080936E0010925D
:100DF00081008091810082608093810080918100D8
:100E00008160809381008091800081608093800068
:100E10008091B10084608093B1008091B0008160C6
:100E20008093B00080917A00846080937A008091F2
:100E30007A00826080937A0080917A00816080934A
:100E40007A0080917A00806880937A001092C100C5
:100E500010921F031092200310922103109222037C
:100E60001092DD021092DE021092DF021092E00278
:100E700068EB7BE080E090E00E947E018EE392E0F0
:100E800090931E0380931D030E9445060E94A503B4
:100E90006093DD027093DE028093DF029093E002A4
:100EA00066E371E080911D0390911E030E94C606C7
:100EB0006AE070E080E090E00E947E0181E0809333
:100EC000F10261E083E00E94690360E088E00E9433
:100ED000690360E089E00E94690360E08AE00E94A3
:100EE000690361E088E00E941D0361E089E00E94DF
:100EF0001D0361E085E00E94690361E086E00E94D5
:100F0000690361E08BE00E94690360E085E00E9474
:100F10001D0360E086E00E941D0360E08BE00E94FC
:100F20001D0361E082E00E94690361E084E00E94A9
:100F3000690360E087E00E94690360E08FE00E943F
:100F4000690360E080E10E94690360E08CE00E9438
:100F5000690361E08DE00E94690361E08EE00E9418
:100F6000690360E084E10E94690360E085E10E941A
:100F700069030E94450668E471E08EE392E00E94F6
:100F8000C60665E471E08EE392E00E94C6068E011B
:100F90000F5F1F4F8EE392E00E94AF0018161906F4
:100FA0000CF066C08EE392E00E948D00E0913E025C
:100FB000F0913F020190F081E02D682F8EE392E0E6
:100FC000099541E050E066E471E081E493E00E941D
:100FD0006D06198618861B861A861D861C8642E1B8
:100FE00050E069E671E0CE0108960E949B064AE057
:100FF000B80186E090E00E94570AF80101900020B5
:10100000E9F73197AF01401B510BB801CE010896AB
:101010000E946D0644E050E06CE771E0CE01089656
:101020000E946D0640914503509146036091410333
:1010300070914203CE0108960E946D064C855D8535
:10104000688579858EE392E00E94F30565E471E09E
:101050008EE392E00E94C60640E050E067E471E053
:1010600081E493E00E949B06888599850E947B0B12
:101070000E94A5036093370370933803809339036C
:1010800090933A03C0903B03D0903C03E0903D0323
:10109000F0903E039B01AC012C193D094E095F09FC
:1010A00069017A0130EDC31637E0D306E104F1049B
:1010B000FCF060933B0370933C0380933D0390935B
:1010C0003E0380912F0390913003892B39F481E006
:1010D00090E09093300380932F0304C0109230036C
:1010E00010922F0360912F03809125030E941D030E
:1010F0000E944F014FCF80914103909142030E9483
:101100007B0B8AE291E090932B0480932A048091D8
:101110004703909148038A52944071F4E0913D0452
:10112000F0913E04908180913F04809589238083D3
:10113000109248031092470308950F931F93CF9383
:10114000DF93CDB7DEB762970FB6F894DEBF0FBE60
:10115000CDBF109241021092400288EE93E0A0E0D1
:10116000B0E08093420290934302A0934402B09374
:1011700045022AE031E030933F0220933E0225EC05
:1011800030E030934B0220934A0224EC30E030935D
:101190004D0220934C0220EC30E030934F0220931C
:1011A0004E0221EC30E0309351022093500222ECA9
:1011B00030E0309353022093520226EC30E030931B
:1011C0005502209354021092570210925802109226
:1011D000590210925A0210922D0410922C048093FE
:1011E0002E0490932F04A0933004B09331048AE22C
:1011F00091E090932B0480932A0410924104109262
:10120000400410924304109242041092450410923C
:1012100044041092470410924604609148046E7F83
:101220006D7F609348046695617081E068278DE06A
:101230000E941D0361E08DE00E946903EBEBF0E08A
:10124000E491E0933A04E7EAF0E0E491F0E0EE0F95
:10125000FF1FEA57FF4F8591949190933C04809330
:101260003B0460E08CE00E9469038091480481FDAA
:1012700004C061E08CE00E941D038CE08093360482
:10128000EAEBF0E0E491E0933704E6EAF0E0E49181
:10129000F0E0EE0FFF1FE057FF4F85919491909380
:1012A0003904809338048AE294E09093290480936F
:1012B0002804109274031092730310927603109214
:1012C0007503109278031092770310927A031092AC
:1012D000790310927C0310927B0310927E0310928C
:1012E0007D031092800310927F031092820310926C
:1012F000810310928403109283031092860310924C
:101300008503109288031092870310928A0310922B
:10131000890310928C0310928B0310928E0310920B
:101320008D031092900310928F03109292031092EB
:1013300091031092940310929303109296031092CB
:1013400095031092E1021092E2021092E3021092D1
:10135000E4021092E5021092E6021092E702109267
:10136000E8021092E9021092EA021092EB02109247
:10137000EC021092ED021092EE021092EF02109227
:10138000F00210924C0310924B0388EE93E0A0E021
:10139000B0E080934D0390934E03A0934F03B0931E
:1013A00050038AE191E090934A038093490310929D
:1013B000420310924103109244031092430310928F
:1013C0004603109245034AE08E010F5F1F4FB8019C
:1013D00080E290E00E944C0AF80101900020E9F7B9
:1013E0003197AF01401B510BB80181E493E00E949B
:1013F0009B0610922403109223038DE090E09093BB
:101400002603809325031092300310922F0301E0EE
:1014100014E010932E0300932D030E94A503609304
:101420003B0370933C0380933D0390933E0381E024
:1014300090E0909356038093550385E090E090935D
:101440005A038093590386E090E090935C03809365
:101450005B038BE090E090935E0380935D031092BA
:101460006203109261031093600300935F030E9474
:10147000A50360936D0370936E0380936F03909345
:10148000700362960FB6F894DEBF0FBECDBFDF913A
:10149000CF911F910F910895BB274A3031F49923C2
:1014A00022F4BDE2909581959F4F0C94580ABB277A
:1014B000FB015527AA27880F991FAA1FA41710F010
:1014C000A41B83955051B9F7A05DAA3308F0A95D1C
:1014D000A193009779F7B111B1931192CB010C94BC
:1014E000710ADC01FC01672F71917723E1F73297D4
:1014F00004C07C916D9370836291AE17BF07C8F3EF
:1015000008952F923F924F925F926F927F928F92A7
:101510009F92AF92BF92CF92DF92EF92FF920F9382
:101520001F93CF93DF93CDB7DEB7CA1BDB0B0FB68C
:10153000F894DEBF0FBECDBF09942A883988488849
:101540005F846E847D848C849B84AA84B984C884DF
:10155000DF80EE80FD800C811B81AA81B981CE0FD6
:10156000D11D0FB6F894DEBF0FBECDBFED010895BB
:1015700097FB072E16F4009407D077FD09D00E9440
:10158000CC0A07FC05D03EF4909581959F4F0895B5
:10159000709561957F4F0895AA1BBB1B51E107C051
:1015A000AA1FBB1FA617B70710F0A61BB70B881FF3
:1015B000991F5A95A9F780959095BC01CD01089582
:1015C000EE0FFF1F0590F491E02D0994CF93DF9368
:1015D0008230910510F482E090E0E0914B04F091AC
:1015E0004C0420E030E0C0E0D0E0309711F14081C1
:1015F000518148175907C0F04817590761F4828193
:101600009381209719F09B838A832BC090934C047D
:1016100080934B0426C02115310519F0421753075A
:1016200018F49A01BE01DF01EF010280F381E02D81
:10163000DCCF2115310509F1281B390B2430310588
:1016400090F412968D919C9113976115710521F07C
:10165000FB019383828304C090934C0480934B04DA
:10166000FD01329644C0FD01E20FF31F8193919377
:10167000225031092D933C933AC020914904309176
:101680004A04232B41F4209102013091030130934D
:101690004A04209349042091000130910101211551
:1016A000310541F42DB73EB7409104015091050139
:1016B000241B350BE0914904F0914A04E217F3072B
:1016C000A0F42E1B3F0B2817390778F0AC014E5FB2
:1016D0005F4F2417350748F04E0F5F1F50934A04A1
:1016E000409349048193919302C0E0E0F0E0CF0180
:1016F000DF91CF9108950F931F93CF93DF930097BE
:1017000009F48CC0FC0132971382128200914B04C1
:1017100010914C040115110581F420813181820F53
:10172000931F2091490430914A042817390779F50D
:10173000F0934A04E093490471C0D80140E050E0BE
:10174000AE17BF0750F412962D913C911397AD013F
:101750002115310509F1D901F3CF9D01DA01338358
:10176000228360817181860F971F8217930769F426
:10177000EC0128813981260F371F2E5F3F4F3183BF
:1017800020838A819B8193838283452B29F4F09364
:101790004C04E0934B0442C01396FC93EE931297D3
:1017A000ED01499159919E01240F351FE217F3076E
:1017B00071F480819181840F951F029611969C93FC
:1017C0008E938281938113969C938E931297E0E07F
:1017D000F0E0D80112968D919C911397009719F023
:1017E000F8018C01F6CF8D919C9198012E5F3F4FAF
:1017F000820F931F2091490430914A04281739071A
:1018000069F4309729F410924C0410924B0402C0F2
:101810001382128210934A0400934904DF91CF91FE
:101820001F910F910895A0E0B0E0E9E1FCE00C9475
:10183000850AEC01009721F4CB010E94E60AB8C0AA
:10184000FC01E60FF71F9C0122503109E217F30754
:1018500008F4ACC0D9010D911C9111970617170718
:10186000B0F00530110508F49FC0C8010497861731
:10187000970708F499C002501109061B170B019332
:1018800011936D937C93CF010E947B0B8DC05B0104
:10189000A01AB10A4C01800E911EA0914B04B09188
:1018A0004C0440E050E0E12CF12C109709F44AC0C0
:1018B000A815B905D1F56D907C901197630182E070
:1018C000C80ED11CCA14DB0480F1A3014A195B09BC
:1018D0006A0182E0C80ED11C1296BC901297139632
:1018E000AC91B5E0CB16D10440F0B282A383518312
:1018F0004083D9016D937C930AC00E5F1F4FC301D3
:10190000800F911FF90191838083EB2DFA2FE11451
:10191000F10431F0D7011396FC93EE93129744C073
:10192000F0934C04E0934B043FC08D919C91119730
:101930004817590708F4AC017D0112960D90BC912F
:10194000A02DB3CF8091490490914A048815990540
:10195000E1F446175707C8F4809100019091010106
:10196000009741F48DB79EB7409104015091050155
:10197000841B950BE817F907C8F4F0934A04E09329
:101980004904F901718360830FC0CB010E94E60A0C
:101990007C01009759F0A801BE010E94E20CCE0123
:1019A0000E947B0BC70104C0CE0102C080E090E022
:1019B000CDB7DEB7EEE00C94A10A81E090E0F89498
:1019C0000C94F20CFB01DC0102C001900D9241501D
:1019D0005040D8F70895FB01DC0101900D920020E2
:1019E000E1F7089510E0C2E6D0E004C0FE010E94D5
:0E19F000E00A2196C336D107C9F7F894FFCF5D
:1019FE0000004D04800000000000E600F305AF007B
:101A0E008D00A1002D0100000000B2029E0297027F
:101A1E0094029102900200000000D101F30525020C
:101A2E003D02B801D001564D4450565F317C315FB6
:101A3E00564D4450560D0A0053796E74686573699D
:101A4E007A657220576F726B73746174696F6E2052
:101A5E00737461727465642100726563656976657D
:101A6E006420636F6D6D616E6420280062293A20D8
:021A7E00000066
:107800000C94343C0C94513C0C94513C0C94513CE1
:107810000C94513C0C94513C0C94513C0C94513CB4
:107820000C94513C0C94513C0C94513C0C94513CA4
:107830000C94513C0C94513C0C94513C0C94513C94
:107840000C94513C0C94513C0C94513C0C94513C84
:107850000C94513C0C94513C0C94513C0C94513C74
:107860000C94513C0C94513C11241FBECFEFD8E036
:10787000DEBFCDBF11E0A0E0B1E0ECE9FFE702C060
:1078800005900D92A230B107D9F712E0A2E0B1E065
:1078900001C01D92AD30B107E1F70E942D3D0C945F
:1078A000CC3F0C94003C982F959595959595959582
:1078B000905D8F708A307CF0282F295A8091C0000B
:1078C00085FFFCCF9093C6008091C00085FFFCCF60
:1078D0002093C6000895282F205DF0CF982F809127
:1078E000C00085FFFCCF9093C6000895EF92FF92F1
:1078F0000F931F93EE24FF2487018091C00087FD22
:1079000017C00894E11CF11C011D111D81E4E8164B
:1079100082E4F8068FE0080780E0180770F3E09132
:107920000401F091050109958091C00087FFE9CF1E
:107930008091C6001F910F91FF90EF9008950E94D3
:10794000763C982F8091C00085FFFCCF9093C600B5
:1079500091362CF490330CF09053892F089597555D
:10796000892F08951F930E949F3C182F0E949F3CCF
:107970001295107F810F1F9108951F93182F882350
:1079800021F00E94763C1150E1F71F9108951F935A
:10799000182F0E94763C803249F0809103018F5F5E
:1079A000809303018530C1F01F9108958091C0003C
:1079B00085FFFCCF84E18093C6008091C00085FFE5
:1079C000FCCF1093C6008091C00085FFFCCF80E102
:1079D0008093C6001F910895E0910401F091050184
:1079E00009951F9108950E94763C803241F0809164
:1079F00003018F5F80930301853081F008958091AA
:107A0000C00085FFFCCF84E18093C6008091C00058
:107A100085FFFCCF80E18093C6000895E0910401CA
:107A2000F09105010995089540E951E08823A1F0FE
:107A30002D9A28EE33E0FA013197F1F721503040CA
:107A4000D1F72D9828EE33E0FA013197F1F7215064
:107A50003040D1F7815061F708953F924F925F9285
:107A60006F927F928F929F92AF92BF92CF92DF924E
:107A7000EF92FF920F931F93CF93DF93000080E16B
:107A80008093C4001092C50088E18093C10086E015
:107A90008093C2005098589A259A81E00E94143D24
:107AA00024E1F22E9EE1E92E85E9D82E0FE0C02ECA
:107AB00010E1B12EAA24A394B1E49B2EA6E58A2E50
:107AC000F2E57F2EE0E26E2E79E4572E63E5462E36
:107AD00050E5352E0E94763C8033B1F18133B9F107
:107AE000803409F46FC0813409F476C0823409F41B
:107AF00085C0853409F488C0803531F1823521F1A3
:107B0000813511F1853509F485C0863509F48DC0BC
:107B1000843609F496C0843709F403C1853709F423
:107B200072C1863709F466C0809103018F5F80932C
:107B30000301853079F6E0910401F0910501099582
:107B40000E94763C803351F60E94F33CC3CF0E94E2
:107B5000763C803249F78091C00085FFFCCFF092DF
:107B6000C6008091C00085FFFCCF9092C600809136
:107B7000C00085FFFCCF8092C6008091C00085FFC9
:107B8000FCCF7092C6008091C00085FFFCCF609250
:107B9000C6008091C00085FFFCCF5092C600809146
:107BA000C00085FFFCCF4092C6008091C00085FFD9
:107BB000FCCF3092C6008091C00085FFFCCFB09210
:107BC000C60088CF0E94763C863808F4BDCF0E945C
:107BD000763C0E94F33C7ECF0E94763C803809F4CC
:107BE0009CC0813809F40BC1823809F43CC1883942
:107BF00009F48FC080E00E94C73C6CCF84E10E94F2
:107C0000BD3C0E94F33C66CF85E00E94BD3C0E94D3
:107C1000F33C60CF0E94763C809306010E94763C44
:107C2000809307010E94F33C55CF0E94763C80333D
:107C300009F41DC183E00E94BD3C80E00E94C73C66
:107C400049CF0E94763C809309020E94763C809343
:107C5000080280910C028E7F80930C020E94763C79
:107C6000853409F415C18091080290910902892B8D
:107C700089F000E010E00E94763CF801E85FFE4FDA
:107C800080830F5F1F4F80910802909109020817AF
:107C9000190788F30E94763C803209F045CF809125
:107CA0000C0280FF01C16091060170910701660F0F
:107CB000771F7093070160930601A0910802B091AD
:107CC00009021097C9F0E8E0F1E09B01AD014E0F09
:107CD0005F1FF999FECF32BD21BD819180BDFA9A17
:107CE000F99A2F5F3F4FE417F50799F76A0F7B1F4B
:107CF00070930701609306018091C00085FFFCCF5F
:107D0000F092C6008091C00085FFFCCFB092C60003
:107D1000E1CE83E00E94C73CDDCE82E00E94C73CFA
:107D2000D9CE0E94763C809309020E94763C8093D3
:107D300008028091060190910701880F991F909386
:107D40000701809306010E94763C853409F4A6C0A1
:107D500080910C028E7F80930C020E94763C8032D0
:107D600009F0B8CE8091C00085FFFCCFF092C6002C
:107D7000609108027091090261157105B9F140E046
:107D800050E080910C02A82FA170B82FB27011C0E2
:107D9000BB2309F45CC0E0910601F0910701319624
:107DA000F0930701E09306014F5F5F4F46175707B7
:107DB000E8F4AA2369F3F999FECF209106013091E6
:107DC000070132BD21BDF89A90B58091C00085FFB2
:107DD000FCCF9093C6002F5F3F4F30930701209355
:107DE00006014F5F5F4F4617570718F38091C00099
:107DF00085FDE5CE8091C00085FFF8CFE0CE81E023
:107E00000E94C73C67CE0E94763C803209F08CCE3F
:107E10008091C00085FFFCCFF092C6008091C00029
:107E200085FFFCCFE092C6008091C00085FFFCCFAB
:107E3000D092C6008091C00085FFFCCFC092C600E2
:107E40008091C00085FFFCCFB092C60043CEE09188
:107E50000601F091070194918091C00085FFFCCF4D
:107E60009093C6009CCF80E10E94C73C33CE0E9415
:107E7000763C0E94763C182F0E94763C112309F430
:107E800083C0113009F484C08FE00E94C73C22CE29
:107E900080910C02816080930C02E5CE80910C02EF
:107EA000816080930C0259CF809107018823880F4D
:107EB000880B8A2180930B02809106019091070123
:107EC000880F991F90930701809306018091080203
:107ED00080FF09C080910802909109020196909359
:107EE000090280930802F894F999FECF1127E091D6
:107EF0000601F0910701C8E0D1E08091080290915D
:107F00000902103091F40091570001700130D9F34B
:107F100003E000935700E89500915700017001308D
:107F2000D9F301E100935700E89509901990009169
:107F3000570001700130D9F301E000935700E89534
:107F40001395103498F011270091570001700130FB
:107F5000D9F305E000935700E895009157000170B0
:107F60000130D9F301E100935700E895329602976A
:107F700009F0C7CF103011F00296E5CF112480919F
:107F8000C00085FFB9CEBCCE8EE10E94C73CA2CD19
:0C7F900085E90E94C73C9ECDF894FFCF0D
:027F9C00800063
:040000030000780081
:00000001FF